:100000000C9433000C94A1020C9450000C945000FA
:100010000C9450000C9450000C9450000C94500020
:100020000C9450000C9450000C9450000C94500010
:100030000C9450000C9450000C9450000C94500000
:100040000C9450000C9450000C9450000C948302BB
:100050000C94500020202020202020202020202030
:1000600020202020000011241FBECFE5D4E0DEBFF9
:10007000CDBF10E0A0E6B0E0E4E2FEE002C00590F3
:100080000D92A43CB107D9F721E0A4ECB0E001C087
:100090001D92A031B207E1F70E9441020C941007B3
:1000A0000C94D302CF93C82F843010F087E001C0A6
:1000B00086E0C4980E94B5038C2F8295880F880F24
:1000C000807C0E94B503C82F8FEF0E94B503C49AAD
:1000D000CF702C2F30E0322F2227A901482BCA01E4
:1000E000CF9108950C94A60310BC19B882E08BB987
:1000F00088E18AB986E880BD08955D9BFECF8CB902
:1001000008955F9BFECF8CB108958FE190E05F9BD7
:1001100003C02CB10197D9F7089581E08093EE00D8
:1001200060EA70E088ED90E00E941F0484E090E0B7
:100130009093F0008093EF0060E080E00E942F0237
:1001400088ED90E00E94BD0182E08093EE0008956A
:1001500080E00E947C0184E590E09F938F9385EA84
:1001600090E09F938F9388ED90E09F938F930E94F0
:10017000260460E080E00E942F0288ED90E00E945B
:10018000BD0161E080E00E942F0288ED90E00E94B6
:10019000BD01C39A88EE93E09093D7008093D60078
:1001A0001092F2001092F1001092EE000F900F905A
:1001B0000F900F900F900F900895D89AD998D998D2
:1001C000DA98DA98DB98DB98DF9ADE9ADD9ADC9A87
:1001D000B89AB99ABA9ABB9AC49AC59AC698C69858
:1001E000C79AA098A198A298A398A498A598A69811
:1001F000A798A898A998AA98AB98AC98AD98AE98EB
:10020000AF9888989098899A8B9A8E9A8D9A8B9AA3
:100210008C9A8F9A8A989298089582E085BF80E49C
:100220008BBF089583E083BF8CE78CBF88B78D7F39
:1002300088BF88B78E7F88BF89B78E7F89BF89B70F
:10024000826089BF08958AB38F708ABBC19AC098B3
:1002500000C000C0C29A00C000C089B3807F00C047
:1002600000C0C29892E09A95F1F700C0C29A00C00F
:1002700000C099B300C000C0C29892E09A95F1F70F
:1002800000C087FDE7CFC1988AB3806F8ABB08950D
:10029000382F32953F70982F9F70611102C0C0981F
:1002A00001C0C09A00C000C0C29A2BB3822F8F70C9
:1002B00040E1349F90011124282B2BBB82E08A95CA
:1002C000F1F700C0C29832E03A95F1F700C0C29A47
:1002D0008BB3282F2F7040E1949FC0011124822BF3
:1002E0008BBB82E08A95F1F700C0C29832E03A9564
:1002F000F1F700C00C942301CF93DF93C82F8FE553
:100300009AEE0197F1F700C000008AB3806F8ABBB4
:10031000BA9AB89AB99A8BB38F708BBBC298C198AE
:10032000C09800C00000C29ADD9A92E09A95F1F759
:1003300000C0C29882E08A95F1F700C00E942301B4
:1003400060E08C2F8C600E94480160E088E20E948F
:10035000480160E080E40E944801C0E6D0E061E02E
:1003600089910E94480190E0C03AD907C1F760E046
:1003700080E8DF91CF910C9448010F931F93CF93A6
:10038000DF93EC0188818823C9F0853281F48E01E6
:100390000F5F1F4F8981805361E0883028F085E22C
:1003A0000E94480161E089810E94480104C061E027
:1003B0000E9448018E01E8012196E4CFDF91CF91A0
:1003C0001F910F910895EF92FF920F931F93CF9378
:1003D000DF9300D000D01F92CDB7DEB79B01AE01F6
:1003E0004F5F5F4F7A0145E0F70111924A95E9F7B7
:1003F000FE0136960AE010E0009731F0B8010E9445
:10040000BA038293CB01F8CF2F3FFFEF3F0741F4B0
:10041000F7018F010E191F0981918823D1F304C0C0
:1004200005E010E0021B130B0E0D1F1DC8018E19F5
:100430009F09059744F4F80181918F0161E0805D87
:100440000E944801F3CF0F900F900F900F900F90E4
:10045000DF91CF911F910F91FF90EF90089584311C
:1004600078F4623031F0633031F0613029F4806427
:1004700003C08C5E01C08C5A60E080680C94480117
:100480000895F89418BE0E94DD000E9412010E9497
:10049000A8000E94720080E090E00E9474000E9418
:1004A0000D0178940E948D0060E081E00E94480177
:1004B00060E080E00E942F0288EA90E00E94BD0187
:1004C0000E9485000E94810060E081E00E94480156
:1004D00060E080E00E942F0289EB90E00E94BD0165
:1004E0002FEF89E698E1215080409040E1F700C06D
:1004F000000086E40E947D0086E40E947D008CE27C
:100500000E947D00FFCF1F920F920FB60F92112411
:100510008F939F9312BE8091D4009091D500892B28
:1005200049F08091D4009091D50001979093D50027
:100530008093D4009F918F910F900FBE0F901F90CA
:1005400018951F920F920FB60F9211242F933F937D
:100550004F935F936F937F938F939F93AF93BF93CB
:10056000EF93FF9380E00E9452009093FA008093F3
:10057000F90086E40E947D0086E40E947D008CE202
:100580000E947D00FF91EF91BF91AF919F918F915C
:100590007F916F915F914F913F912F910F900FBE7F
:1005A0000F901F9018951F920F920FB60F92112463
:1005B0000F900FBE0F901F901895811103C087B147
:1005C000807E34C0813029F487B1807E87B9389A23
:1005D0000895823029F487B1807E87B9399A0895C9
:1005E000833031F487B1807E87B987B183601EC0C4
:1005F000843029F487B1807E87B93A9A089585308E
:1006000031F487B1807E87B987B185600FC08630AD
:1006100031F487B1807E87B987B1866007C08730A3
:1006200031F487B1807E87B987B1876087B9089533
:10063000811102C03F9803C0813019F43F9A3E9A5D
:1006400008953F983E98089580E487B980E00E941D
:10065000DD0287ED86B910920C0110920D01109207
:100660000E0110920F0110920201109203011092DC
:1006700004011092050110920601109207011092D8
:100680000801109209011092FD001092FC000895DB
:100690008091FC00823021F128F4882349F08130D8
:1006A00069F051C08430A1F108F18530C9F14BC027
:1006B00081E00E94DD02369A81E02FC0369945C064
:1006C00064B175B180E090E00E94E20360930C0198
:1006D00070930D0180930E0190930F0182E01DC075
:1006E00082E00E94DD02369A83E017C036992DC061
:1006F00064B175B180E090E00E94E2036093020172
:1007000070930301809304019093050184E005C078
:1007100083E00E94DD02369A85E08093FC00089514
:10072000369913C064B175B180E090E00E94E20395
:10073000609306017093070180930801909309016B
:100740001092FC0008950C942403089587B3806BE5
:1007500087BBC49ABC9AC49A8DB181658DB908953E
:100760006E9887B38F7587BB08958FB9779BFECF3F
:100770008FB1089597FB072E16F4009407D077FDEC
:1007800009D00E94CE0307FC05D03EF490958195D8
:100790009F4F0895709561957F4F0895AA1BBB1BCD
:1007A00051E107C0AA1FBB1FA617B70710F0A61B71
:1007B000B70B881F991F5A95A9F780959095BC0192
:1007C000CD010895E89409C097FB3EF4909580957B
:1007D000709561957F4F8F4F9F4F9923A9F0F92F07
:1007E00096E9BB279395F695879577956795B79585
:1007F000F111F8CFFAF4BB0F11F460FF1BC06F5F6B
:100800007F4F8F4F9F4F16C0882311F096E911C07C
:10081000772321F09EE8872F762F05C0662371F09D
:1008200096E8862F70E060E02AF09A95660F771FB1
:10083000881FDAF7880F9695879597F90895FB0139
:10084000DC0101900D920020E1F70895AEE0B0E0E8
:10085000ECE2F4E00C94E7060D891E8986E08C83B7
:100860001A8309838FEF9FE79E838D83AE01475ED6
:100870005F4F6F89788DCE0101960E944804EF8109
:10088000F885E00FF11F10822E96E4E00C94030728
:10089000ABE0B0E0EEE4F4E00C94D9066C017B012F
:1008A0008A01FC0117821682838181FFCCC1CE01AF
:1008B00001963C01F6019381F70193FD859193FF29
:1008C00081917F01882309F4BAC1853239F493FDFF
:1008D000859193FF81917F01853229F4B60190E0E3
:1008E0000E943F06E7CF912C212C312CFFE1F3151C
:1008F000D8F08B3279F038F4803279F08332A1F479
:10090000232D20611DC08D3261F0803369F4232DC9
:10091000216016C0832D8260382EE32DE4603E2EC8
:100920002AC0F32DF8601DC037FC2DC020ED280F24
:100930002A3040F08E32B9F436FC81C1232D206478
:10094000322E19C036FE06C08AE0989E200D112472
:10095000922E11C0EAE02E9E200D1124222EF32D9E
:10096000F0623F2E08C08C3621F4832D8068382E2B
:1009700002C0883641F4F70193FD859193FF819180
:100980007F018111B3CF982F9F7D9554933028F428
:100990000C5F1F4F9FE399830DC0833631F083377F
:1009A00071F0833509F059C021C0F8018081898335
:1009B0000E5F1F4F88248394912C530113C028018C
:1009C000F2E04F0E511CF801A080B18036FE03C04A
:1009D000692D70E002C06FEF7FEFC5010E94340601
:1009E0004C018201F32DFF773F2E16C0280122E033
:1009F000420E511CF801A080B18036FE03C0692D63
:100A000070E002C06FEF7FEFC5010E9429064C0124
:100A1000F32DF0683F2E820133FC1BC0822D90E045
:100A200088169906B0F4B60180E290E00E943F0675
:100A30002A94F4CFF50137FC859137FE81915F014F
:100A4000B60190E00E943F0621102A9421E0821A0C
:100A500091088114910471F7E8C0843611F0893649
:100A600041F5F80137FE07C0608171818281938171
:100A70000C5F1F4F08C060817181072E000C880B2E
:100A8000990B0E5F1F4FF32DFF763F2E97FF09C086
:100A900090958095709561957F4F8F4F9F4FF0682F
:100AA0003F2E2AE030E0A3010E947B06882E8618A4
:100AB00045C0853731F4232D2F7EB22E2AE030E059
:100AC00025C0932D997FB92E8F36C1F018F4883543
:100AD00079F0B5C0803719F0883721F0B0C0E92F20
:100AE000E061BE2EB4FE0DC0FB2DF460BF2E09C028
:100AF00034FE0AC0292F2660B22E06C028E030E05E
:100B000005C020E130E002C020E132E0F801B7FE8C
:100B100007C060817181828193810C5F1F4F06C085
:100B20006081718180E090E00E5F1F4FA3010E9401
:100B30007B06882E8618FB2DFF773F2E36FE0DC0D4
:100B4000232D2E7FA22E891458F434FE0BC032FCC4
:100B500009C0832D8E7EA82E05C0B82CA32C03C0FF
:100B6000B82C01C0B92CA4FE0FC0FE01E80DF11D88
:100B70008081803321F49A2D997EA92E09C0A2FE8E
:100B800006C0B394B39404C08A2D867809F0B39458
:100B9000A3FC11C0A0FE06C0B21488F4280C922C4D
:100BA0009B180EC0B21460F4B60180E290E00E947F
:100BB0003F06B394F7CFB21418F42B1802C0982C48
:100BC000212CA4FE10C0B60180E390E00E943F06F5
:100BD000A2FE17C0A1FC03C088E790E002C088E530
:100BE00090E0B6010CC08A2D867859F0A1FE02C0B3
:100BF0008BE201C080E2A7FC8DE2B60190E00E948A
:100C00003F06891438F4B60180E390E00E943F0665
:100C10009A94F7CF8A94F301E80DF11D8081B60113
:100C200090E00E943F068110F5CF222009F442CEC9
:100C3000B60180E290E00E943F062A94F6CFF601CA
:100C40008681978102C08FEF9FEF2B96E2E10C9493
:100C5000F506FC010590615070400110D8F78095B1
:100C600090958E0F9F1F0895FC0161507040019078
:100C70000110D8F7809590958E0F9F1F08950F93C0
:100C80001F93CF93DF93FB01238121FD03C08FEFDF
:100C90009FEF2CC022FF16C04681578124813581E9
:100CA0004217530744F4A081B1819D012F5F3F4F4C
:100CB000318320838C93268137812F5F3F4F378389
:100CC000268314C08B01EC01FB010084F185E02D2B
:100CD0000995892BE1F6D80116968D919C9117976D
:100CE000019617969C938E931697CE01DF91CF9124
:100CF0001F910F910895FA01AA27283051F1203150
:100D000081F1E8946F936E7F6E5F7F4F8F4F9F4F9F
:100D1000AF4FB1E03ED0B4E03CD0670F781F891FE1
:100D20009A1FA11D680F791F8A1F911DA11D6A0FAF
:100D3000711D811D911DA11D20D009F468943F9162
:100D40002AE0269F11243019305D3193DEF6CF0161
:100D50000895462F4770405D4193B3E00FD0C9F727
:100D6000F6CF462F4F70405D4A3318F0495D31FD94
:100D70004052419302D0A9F7EACFB4E0A6959795E7
:100D8000879577956795BA95C9F7009761057105BD
:100D900008959B01AC010A2E069457954795379507
:100DA0002795BA95C9F7620F731F841F951FA01D61
:100DB00008952F923F924F925F926F927F928F92FF
:100DC0009F92AF92BF92CF92DF92EF92FF920F93DA
:100DD0001F93CF93DF93CDB7DEB7CA1BDB0B0FB6E4
:100DE000F894DEBF0FBECDBF09942A8839884888A1
:100DF0005F846E847D848C849B84AA84B984C88437
:100E0000DF80EE80FD800C811B81AA81B981CE0F2D
:100E1000D11D0FB6F894DEBF0FBECDBFED01089512
:040E2000F894FFCF74
:100E240000001111131D10100F10100E01011E00EF
:100E340000000000000000000000000000000000AE
:100E4400000000000000000000000000000000009E
:100E5400000000000000000000000000000000008E
:100E6400486F6C61002553004553504552414E4430
:100E74004F20494E4943494F004341505455524134
:040E84004E444F0089
:00000001FF
