:1000000021C03BC03AC039C091C237C036C035C0EC
:1000100034C071C232C0B4C230C02FC02EC02DC097
:100020002CC02BC02AC07BC081C093C0B5C0CFC03C
:10003000E9C0FCC025C127C12AC12EC132C136C1C9
:100040003AC13EC111241FBECFE5D4E0DEBFCDBF13
:1000500010E0A0E6B0E0ECE6FBE002C005900D92F7
:10006000A437B107D9F720E0A4E7B0E001C01D92A2
:10007000A43EB207E1F70BD277C594C210BC88E06A
:1000800089B982E08BB91AB888E98AB986E880BD57
:1000900008955D9BFECF8CB908955F9BFECF8CB118
:1000A00008958FE190E05F9B03C02CB10197D9F7D1
:1000B00008958EE190E090939F0080939E005D9B59
:1000C000FECF0895EF92FF920F931F93CF93DF938C
:1000D0007C01EC018B01015011098881882351F0CA
:1000E000CE018E199F098017910724F4E2DF8991D0
:1000F0008CB9F3CFDEDF1CB8DF91CF911F910F9148
:10010000FF90EF900895E091E1008E2F90E087300E
:10011000910508F0FDC0FC01ED5EFF4F0994809150
:10012000D500833609F0F4C081E010C08091D5007D
:10013000813308F476C08091D500893308F071C00E
:100140008091D50080538093E30082E08093E100AA
:1001500008958091D500803358F08091D5008A337E
:1001600038F48091D50080538093E20083E0EECF95
:100170008091D5008A3029F08091D5008D3009F02A
:1001800050C08091E300813009F444C08091E300C5
:10019000823009F046C03EC08091D500803390F196
:1001A0008091D5008A3370F58091E200880F982FF6
:1001B000990F990F890F8093E2009091D50080915B
:1001C000E200890F80538093E20084E0BFCF8091EA
:1001D000D5008033B8F08091D5008A3398F48091AF
:1001E000E200880F982F990F990F890F8093E200F2
:1001F0009091D5008091E200890F80538093E200B6
:1002000085E0A4CF8091D5008A3021F08091D5007F
:100210008D3039F486E08093E10081E08093C00066
:1002200008951092E1001092E30008959091E20089
:100230008091E3001F929F931F928F9380E690E03E
:100240009F938F9381EC90E09F938F93B5D164E15E
:1002500070E081EC90E036DFE091E3008DB79EB76F
:1002600008960FB6F8949EBF0FBE8DBF8E2F90E0FC
:10027000FC013197E830F10538F5E65EFF4F09944F
:100280001092DE0021C081E08093DE001DC08091CD
:10029000E2008093D90018C08091E2008093D800DA
:1002A00013C08091E2008093E0000EC08091E200D4
:1002B0008093DD0009C08091E2008093D60004C0E5
:1002C0008091E2008093DA009091E2008091E30057
:1002D0001F929F931F928F938EE690E09F938F9330
:1002E00081EC90E09F938F9367D16AE070E081EC9E
:1002F00090E0E8DE1092E2001092E1001092E3003C
:100300008DB79EB708960FB6F8949EBF0FBE8DBFEF
:1003100008958091DE00823011F128F4882351F095
:10032000813069F008958430E9F158F1853009F49D
:100330004CC0089581E08FBDAD98AB980895809131
:10034000D6008ABD8091DA0088BD81E88FBD82E049
:100350008093DE008091D9008093DC000895809125
:10036000D6008ABD18BCAD98AB9A8091DC00811193
:100370003DC083E08093DE008091E0008093D70051
:1003800022C01ABC18BCAD98AB988091D7008111DF
:100390002DC084E08093DE008091D8008093DF0040
:1003A00081E223C01ABC8091DA0088BDAD9AAB9877
:1003B0008091DF0081111AC085E08093DE0080917A
:1003C000DD008093DB0081E010C01ABC18BCAD9842
:1003D000AB988091DB00811109C082E08093DE0040
:1003E0008091D9008093DC0081E88FBD08958898C2
:1003F000899AA098BD98BC98BB98A198A29AA59AF2
:10040000A39AA498B99ABA9A8A9A8B9A8C9A8D9A36
:100410008E9A8F9AB89AA89AC59AC49AC39AA9989C
:10042000AA98AC989098AA98AD98AB98C198C298A1
:10043000929893989498959896989798C0980895BC
:1004400083E083BF89B7816089BF88B78E7F88BF0B
:10045000089581E58FBD89E08EBD89B78F7D89BF05
:1004600089B78F7E89BF89B7877F89BF89B7877F23
:1004700089BF1BBC1ABC19BC18BC089582E085BD9D
:1004800089B7806489BF88B78F7B88BF08950FB60E
:10049000F894A89581B5886181BD11BC0FBEF89410
:1004A000A6DFCEDFEBDFD5DFE9DD9CE088E10FB62C
:1004B000F894A89581BD0FBE91BD78948FE080938C
:1004C000D90081E08093E0009AE09093D800809377
:1004D000DD0094E69093D60092E39093DA00809347
:1004E000DE0017DFA8958091C0008130D1F710920F
:1004F000C00009DEF6CF1F920F920FB60F921124A3
:100500008F939F9382E882BF80919E0090919F007D
:10051000009729F0019790939F0080939E009F91F0
:100520008F910F900FBE0F901F9018951F920F92F2
:100530000FB60F9211248F9389EE84BD8091DC0059
:10054000882319F081508093DC008091D7008823A4
:1005500019F081508093D7008091DF00882319F033
:1005600081508093DF008091DB00882319F0815057
:100570008093DB008F910F900FBE0F901F90189506
:100580001F920F920FB60F9211248F938CB180930C
:10059000D50081E08093C0008F910F900FBE0F9027
:1005A0001F9018951F920F920FB60F9211240F9063
:1005B0000FBE0F901F901895AEE0B0E0E1EEF2E0B4
:1005C000AAC20D891E8986E08C831A8309838FEF66
:1005D0009FE79E838D83AE01475E5F4F6F89788D65
:1005E000CE01019608D0EF81F885E00FF11F10824F
:1005F0002E96E4E0ACC2ABE0B0E0E0E0F3E07DC218
:100600006C017B018A01FC0117821682838181FFC4
:10061000BFC1CE0101963C01F6019381F70193FD24
:10062000859193FF81917F01882309F4ADC18532C3
:1006300039F493FD859193FF81917F01853221F4F7
:10064000B60190E0C0D1E8CF912C212C312CFFE1F4
:10065000F315D8F08B3279F038F4803279F08332A8
:10066000A1F4232D20611DC08D3261F0803369F427
:10067000232D216016C0832D8260382EE32DE46087
:100680003E2E2AC0F32DF8601DC037FC2DC020ED92
:10069000280F2A3040F08E32B9F436FC75C1232D74
:1006A0002064322E19C036FE06C08AE0989E200DC6
:1006B0001124922E11C0EAE02E9E200D1124222E2C
:1006C000F32DF0623F2E08C08C3621F4832D806814
:1006D000382E02C0883641F4F70193FD859193FFCF
:1006E00081917F018111B3CF982F9F7D95549330D5
:1006F00028F40C5F1F4F9FE399830DC0833631F0C0
:10070000833771F0833509F055C020C0F80180812E
:1007100089830E5F1F4F88248394912C530112C04C
:100720002801F2E04F0E511CF801A080B18036FE86
:1007300003C0692D70E002C06FEF7FEFC50138D1B3
:100740004C018201F32DFF773F2E15C0280122E0D6
:10075000420E511CF801A080B18036FE03C0692D05
:1007600070E002C06FEF7FEFC50117D14C01F32D90
:10077000F0683F2E820133FC19C0822D90E088166C
:100780009906A0F4B60180E290E01DD12A94F5CF3D
:10079000F50137FC859137FE81915F01B60190E04C
:1007A00012D121102A9421E0821A91088114910417
:1007B00079F7E1C0843611F0893639F5F80137FE52
:1007C00007C060817181828193810C5F1F4F08C0D7
:1007D00060817181072E000C880B990B0E5F1F4FF3
:1007E000F32DFF763F2E97FF09C090958095709569
:1007F00061957F4F8F4F9F4FF0683F2E2AE030E08A
:10080000A3011DD1882E861844C0853731F4232DCD
:100810002F7EB22E2AE030E025C0932D997FB92E8D
:100820008F36C1F018F4883579F0AEC0803719F0F2
:10083000883721F0A9C0E92FE061BE2EB4FE0DC0BB
:10084000FB2DF460BF2E09C034FE0AC0292F26609C
:10085000B22E06C028E030E005C020E130E002C042
:1008600020E132E0F801B7FE07C06081718182812A
:1008700093810C5F1F4F06C06081718180E090E022
:100880000E5F1F4FA301DBD0882E8618FB2DFF774C
:100890003F2E36FE0DC0232D2E7FA22E891458F434
:1008A00034FE0BC032FC09C0832D8E7EA82E05C0FD
:1008B000B82CA32C03C0B82C01C0B92CA4FE0FC0C7
:1008C000FE01E80DF11D8081803321F49A2D997E7F
:1008D000A92E09C0A2FE06C0B394B39404C08A2D09
:1008E000867809F0B394A3FC10C0A0FE06C0B21431
:1008F00080F4280C922C9B180DC0B21458F4B60149
:1009000080E290E060D0B394F8CFB21418F42B18C2
:1009100002C0982C212CA4FE0FC0B60180E390E009
:1009200052D0A2FE16C0A1FC03C088E790E002C02E
:1009300088E590E0B6010CC08A2D867851F0A1FEC2
:1009400002C08BE201C080E2A7FC8DE2B60190E01C
:100950003AD0891430F4B60180E390E034D09A9410
:10096000F8CF8A94F301E80DF11D8081B60190E083
:100970002AD08110F6CF222009F44ECEB60180E2B3
:1009800090E021D02A94F7CFF6018681978102C0AA
:100990008FEF9FEF2B96E2E1CCC0FC0105906150F8
:1009A00070400110D8F7809590958E0F9F1F089585
:1009B000FC016150704001900110D8F7809590952E
:1009C0008E0F9F1F08950F931F93CF93DF93FB010B
:1009D000238121FD03C08FEF9FEF2CC022FF16C0A3
:1009E00046815781248135814217530744F4A08101
:1009F000B1819D012F5F3F4F318320838C932681EE
:100A000037812F5F3F4F3783268314C08B01EC0162
:100A1000FB010084F185E02D0995892BE1F6D801D1
:100A200016968D919C911797019617969C938E938D
:100A30001697CE01DF91CF911F910F910895FA0182
:100A4000AA27283051F1203181F1E8946F936E7F0D
:100A50006E5F7F4F8F4F9F4FAF4FB1E03ED0B4E0FE
:100A60003CD0670F781F891F9A1FA11D680F791F3F
:100A70008A1F911DA11D6A0F711D811D911DA11D50
:100A800020D009F468943F912AE0269F1124301960
:100A9000305D3193DEF6CF010895462F4770405DFB
:100AA0004193B3E00FD0C9F7F6CF462F4F70405DAA
:100AB0004A3318F0495D31FD4052419302D0A9F705
:100AC000EACFB4E0A6959795879577956795BA95FF
:100AD000C9F700976105710508959B01AC010A2EC5
:100AE00006945795479537952795BA95C9F7620F9C
:100AF000731F841F951FA01D08952F923F924F9240
:100B00005F926F927F928F929F92AF92BF92CF929D
:100B1000DF92EF92FF920F931F93CF93DF93CDB7A6
:100B2000DEB7CA1BDB0B0FB6F894DEBF0FBECDBF1E
:100B300009942A88398848885F846E847D848C84EF
:100B40009B84AA84B984C884DF80EE80FD800C81F8
:100B50001B81AA81B981CE0FD11D0FB6F894DEBFDB
:0C0B60000FBECDBFED010895F894FFCF4B
:100B6C00434D443A206325642564200A0D004F6BE5
:040B7C00200A0D003E
:00000001FF
