:100000000C942A000C943C000C943C000C943C0092
:100010000C943C000C943C000C943C000C943C0070
:100020000C943C000C943C000C943C000C943C0060
:100030000C943C000C943C000C943C000C943C0050
:100040000C943C000C943C000C943C000C943C0040
:100050000C943C0011241FBECFE5D4E0DEBFCDBF21
:1000600020E0A0E6B0E001C01D92A536B207E1F79E
:100070000E94DA010C9417020C940000CF93DF93D6
:10008000CDB7DEB78BE390E02BE330E0F9012081C0
:100090002160FC0120838BE390E02BE330E0F90149
:1000A00020812D7FFC0120838BE390E02BE330E067
:1000B000F90120812D7FFC0120838BE390E02BE36D
:1000C00030E0F90120812B7FFC0120838BE390E05D
:1000D0002BE330E0F90120812B7FFC0120838BE3AF
:1000E00090E02BE330E0F9012081277FFC012083A1
:1000F0008BE390E02BE330E0F9012081277FFC01C6
:1001000020838BE390E02BE330E0F901208120682D
:10011000FC0120838BE390E02BE330E0F9012081A8
:100120002064FC0120838BE390E02BE330E0F901B5
:1001300020812062FC0120838BE390E02BE330E000
:10014000F90120812061FC01208387E390E027E30F
:1001500030E0F90120812160FC01208387E390E0F9
:1001600027E330E0F90120812260FC01208387E34E
:1001700090E027E330E0F90120812460FC01208336
:1001800087E390E027E330E0F90120812860FC015B
:10019000208388E390E028E330E0F90120812061AA
:1001A000FC01208388E390E028E330E0F90120811E
:1001B0002062FC01208388E390E028E330E0F9012D
:1001C00020812F7BFC01208388E390E028E330E04E
:1001D000F90120812F7BFC01208388E390E028E354
:1001E00030E0F90120812068FC01208384E390E065
:1001F00024E330E0F90120812E7FFC01208384E399
:1002000090E024E330E0F90120812D7FFC01208380
:1002100084E390E024E330E0F90120812B7FFC01AE
:10022000208384E390E024E330E0F9012081277FFC
:10023000FC01208384E390E024E330E0F901208195
:100240002F7EFC01208384E390E024E330E0F90179
:1002500020812F7DFC01208384E390E024E330E0C3
:10026000F90120812F7BFC01208384E390E024E3CB
:1002700030E0F90120812F77FC01208385E390E0B5
:1002800025E330E0F90120812E7FFC01208385E306
:1002900090E025E330E0F90120812D7FFC012083EF
:1002A00085E390E025E330E0F90120812B7FFC011C
:1002B000208385E390E025E330E0F9012081277F6A
:1002C000FC01208385E390E025E330E0F901208103
:1002D0002F7EFC01208385E390E025E330E0F901E7
:1002E00020812F7DFC01208385E390E025E330E031
:1002F000F90120812F7BFC01208385E390E025E339
:1003000030E0F90120812F77FC01208381E390E028
:1003100021E330E0F90120812E7FFC01208382E37C
:1003200090E022E330E0F90120812E7FFC01208360
:1003300081E390E021E330E0F90120812260FC01BB
:10034000208381E390E021E330E0F90120812860FF
:10035000FC01208381E390E021E330E0F90120817A
:100360002064FC01208381E390E021E330E0F90187
:1003700020812062FC01208381E390E021E330E0D2
:10038000F90120812860FC01208381E390E021E3D2
:1003900030E0F90120812061FC01208381E390E0BD
:1003A00021E330E0F90120812068FC012083DF9106
:1003B000CF910895CF93DF93CDB7DEB70E943E0073
:1003C00088E390E028E330E0F90120812860FC0117
:1003D000208382E390E022E330E0F9012081277F4F
:1003E000FC01208382E390E022E330E0F9012081E8
:1003F0002F7EFC01208382E390E022E330E0F901CC
:1004000020812068FC01208382E390E022E330E039
:10041000F90120812F7BFC01208382E390E022E31D
:1004200030E0F90120812062FC012083FFCFF894A5
:02043000FFCFFC
:00000001FF
