:0400000017EF11F0F5
:08000800046ED8CF05F0E0CF33
:1000100006F00001E9CF0CF0EACF07F0E1CF08F0DD
:10002000E2CF09F0D9CF0AF0DACF0BF0F3CF12F01C
:10003000F4CF13F0FACF14F0F5CF15F0F6CF16F099
:10004000F7CF17F000C00EF001C00FF002C010F0A3
:1000500003C011F0F2AA30EF00F0F2B439EF01F072
:100060009DA036EF00F09EB02CEF01F0F2A83CEF1F
:1000700000F0F2B22FEF01F0F0A642EF00F0F0B086
:1000800034EF01F09DAC48EF00F09EBC54EF01F05E
:100090000EC000F00FC001F010C002F011C003F05C
:1000A0000CC0E9FF07C0EAFF078E08C0E1FF09C0E6
:1000B000E2FF0AC0D9FF0BC0DAFF12C0F3FF13C082
:1000C000F4FF14C0FAFF15C0F5FF16C0F6FF17C005
:1000D000F7FF045006C0E0FF05C0D8FF1000F76A24
:1000E000EE0FF66E000EF7220900F5501200280CF4
:1000F00001060C2053455455502120000C413E4B25
:10010000202B576964002025336C752075732000FF
:100110000C2043414E43454C20000C000C413E4B0B
:10012000204D756C74002B57207820253375000006
:100130000C2043414E43454C20000C000C413E4BEB
:10014000202D576964002025336C752075732000BD
:100150000C2043414E43454C20000C000C413E4BCB
:10016000204D756C74002D572078202533752000A4
:100170000C2043414E43454C20000C000C4B3E41AB
:10018000202B576964002025336C7520757320007F
:100190000C2043414E43454C20000C000C4B3E418B
:1001A000204D756C74002B57207820253375200066
:1001B0000C2043414E43454C20000C000C4B3E416B
:1001C000202D576964002025336C7520757320003D
:1001D0000C2043414E43454C20000C000C4B3E414B
:1001E000204D756C74002D57207820253375200024
:1001F0000C2043414E43454C20000C000C413E4B2B
:10020000202B5725254900000C2043414E43454CE7
:1002100020000C000C4B3E41202B572525490000A7
:100220000C2043414E43454C20000C000C52756E8F
:100230002054696D650020253375206D696E0000BE
:100240000C2043414E43454C20000C000C205341F0
:100250005645442120000C009E9048EF00F0010E0E
:10026000346EF29248EF00F0020E346EF09048EFD8
:1002700000F0D76A060ED66E3D50FA0811E13D6ACD
:100280003CA407D035503A0802E3352A02D0356A3B
:10029000362A3CA204D0373C01D001D0372A01D005
:1002A0003D2AF29448EF00F0C2B2FED7C3CF3AF035
:1002B000C4CF3BF03C809E9C48EF00F00C452D5095
:1002C0004C415445520A256C75000C205354415240
:1002D000543F200A3C2D4E2020592D3E00000C207A
:1002E00043414E43454C20000C000C52554E4E49A4
:1002F0004E4721000C5741524E494E47210A493D75
:100300002530312E33774100202053544F50202088
:1003100000002046494E4953482000000C00202090
:1003200049444C45202000000C00700ED36E9B8C7D
:100330009B9E616AFF0E926EC30E936E900E946E3A
:10034000939A8A9A93948A9493988A9893968A9681
:10035000C150F00BC16E030E0F01386F000E396FE4
:100360003A6FC050C00B0709C06EC08EC280C70E66
:10037000D56ED76A060ED66E300ECD6ECC6AB46AD4
:10038000B16E4D6B4E6F0C0EBD6EB76AB66A080E3D
:10039000B96EFC0E4917000E491393968A960C0EFF
:1003A000666E656A646A010E636EE70E4917000E99
:1003B00049130509BA6E270EBB6E000E516F630E0E
:1003C000526F780E4A6FFF0E4B6FBE6A676A626AA1
:1003D000F298F0969D9C9D989D9AF29A9D90A0927D
:1003E0007D929D927D907D949D94A0909D96A096E7
:1003F000A098A09CA09AD190F19CF19A000157EF8F
:1004000011F0EA6A4E0EE96EEF500EE0140E016E26
:10041000006A002EFED7012EFBD7BF0E006E002E05
:10042000FED700D0EF2EF2D7120055B002D08B9A33
:1004300001D08B8A949A55B202D08B9201D08B82D4
:10044000949255B402D08B9C01D08B8C949C55B661
:1004500002D08B9001D08B80949000008B84949478
:100460000A0E006E002EFED700008B9494941200AA
:10047000566A948A000E82BA010E56129482000EB9
:1004800082B2010E006ED890003600505612948C45
:10049000000E82BC010E006E00360036FC0E001607
:1004A000005056129480000E82B0010E006E00368D
:1004B00000360036F80E00160050561256C001F0F5
:1004C0001200948A9482948C94808B889498000073
:1004D0008B8494940000CCDF01C055F08B949494ED
:1004E00000008B849494040E006E002EFED700D082
:1004F0000000BEDF01C054F08B949494949A9492BF
:10050000949C94905538006EF00E001600505410D4
:10051000016E91EF02F09494949694988B96949631
:10052000D0D701C054F001BEFBD7525202E18B96E6
:1005300001D08B86949600008B98949800008B9441
:1005400094945338546E0F0E541654C055F06DDF0A
:1005500053500F0B546E556E68DF1200949A9492AC
:10056000949C94909494949694988B9694968B984B
:1005700094988B9494940F0E4E6E43DF010E406E50
:100580004050030808E3030E556E4FDF050E4E6E14
:1005900038DF402AF5D7020E556E47DF050E4E6E46
:1005A00030DF406A4050030809E3036A405097DD9A
:1005B000416E526A536EAFDF402AF4D759EF11F003
:1005C0008E0E006E5DC001F05CC002F0036A5DAE8D
:1005D00005D0011E021E022A01E1012A015209E191
:1005E00002C001F0026A080E005E015202E1006AD8
:1005F0000AD0D89001BE04D0023601360006F9D7E1
:100600005DBE01D0019E12005C50D8B4A5D0686FC9
:100610006051D8B4A1D0685F05E37F0E6827D8B0D9
:100620009BD006D0810E685FD8A096D0D8B494D065
:1006300068C000F0016A026A036A676B5DC066F019
:10064000668F5EC065F05FC064F0190E686F63511D
:10065000645F0DE2010E655F0AE2665F08E2675FB4
:1006600006E2672B662B652B6351642728D0625105
:10067000655F12E2010E665F0FE2675F0DE2672BB6
:10068000662B625165276351642719E3652B17E1D7
:10069000662B15E1672B13D061518009665F0EE26E
:1006A000010E675F0BE2672B61518009662762517B
:1006B0006527E9E3662BE7E1672BE5D70380682F21
:1006C00001D00BD0D8906437653766376737D8903C
:1006D0000336023601366937BAD769A106D0D890F9
:1006E000013202320332693302D0000635E069BFBD
:1006F0001ED0D89064376537663767376351645FBB
:1007000007E2010E655F04E2665F02E2675F1AE3DB
:100710006251655F05E2010E665F02E2675F12E308
:1007200061518009665F03E2010E675F0BE3032AF4
:1007300009E1022A07E1012A05E1002A0DE0013260
:10074000023203325DC068F06151681B68AF02D0AD
:10075000018E06D0019E04D0006A016A026A036A13
:10076000FAEF05F05C50D8B471D0006E6051D8B487
:100770006DD0002604E3810E002668E204D07F0ECF
:10078000005E64E363E05DC064F06151641B5D8EF4
:10079000618F5F506303F4CF66F05E506203F4CF65
:1007A00003F0F3CF65F06303F3506627F45065233D
:1007B000000E03225F506203F3506627F450652356
:1007C000000E026A032202225D506303F350652784
:1007D000F4500322000E02225D506203F350032600
:1007E000F4500222000E016A01225F506103F350AF
:1007F0006527F4500322000E022201225E5061039D
:10080000F3500326F4500222000E01225D506103D2
:10081000F3500226F4500122002A01BE05D06537AC
:100820000336023601360006000E65AF0AD0032AF1
:1008300002220122015005E1025003E1035001E1CF
:10084000002A64BF018E64AF019E04D0006A016A71
:10085000026A036A25EF06F0800ED8B2611B666B50
:10086000676B5DC065F06151651B5C50D8B4DCD02E
:10087000646F006E6051D8B4E0D0645FD8B481D0AA
:100880003DE361C06AF06A8F62C069F063C068F0DE
:10089000676BD8906A33693368336733642FF8D74E
:1008A00065AF03D06681DDD0669164916689EA6A9E
:1008B0005F0EE96EE9D0669965BF0AD064A113D0D6
:1008C0006A33693368336733002AD8B4C5D00BD094
:1008D0006ABF0CD0D8906737683769376A37000627
:1008E000D8B4BAD0F5D7668D6BD0669D5DC065F083
:1008F0005DAE02D06A8FA9D06A9FA7D060C064F0B5
:1009000060C000F05C50645F5DC06AF06A8F5EC0DA
:1009100069F05FC068F0676BD8906A3369336833F9
:100920006733642FF8D765AF03D066839AD0669398
:100930006491668BEA6A630EE96EA6D0669B65BF1A
:100940000AD064A113D06A33693368336733002A4D
:10095000D8B482D00BD06ABF0CD0D8906737683734
:1009600069376A370006D8B477D0F5D7668F28D0B4
:10097000669F61C065F061AF02D06A8F66D06A9FE2
:1009800064D061C06AF06A8F62C069F063C068F0C9
:1009900065AF04D06A9F668564D06695676B649185
:1009A000EA6A5F0EE96E70D065BF1CD05DC065F06D
:1009B00064A106D06A33693368336733002A4CE098
:1009C00067AF0BD0682B09E1692B07E16A2B05E1C2
:1009D0006A3369336833002A3FE066BD86D766BF55
:1009E000C7D71CD0800E6A1B6AAF04D03AD061C052
:1009F00065F00AD05DC065F06A5306E1695304E111
:100A0000685302E1006A21D06ABF08D0D8906737E6
:100A1000683769376A37002EF7D71ED065AF02D026
:100A20006A8F13D06A9F11D060C000F061C06AF075
:100A300062C069F063C068F008D05CC000F05DC0BF
:100A40006AF05EC069F05FC068F06AC001F069C01A
:100A500002F068C003F034D0006A016A026A036AD7
:100A60002FD0676B681F691F6A1F671F672B05E11F
:100A7000682B03E1692B01E16A2B66B115D766B3D8
:100A800056D766B58AD7B3D7EF50682705E3692BE9
:100A900003E16A2BD8B46481ED52EF50692703E378
:100AA0006A2BD8B46481ED52EF50EFBE01D0800ABA
:100AB0006A27D8B0648166B9FED666BB3FD774D7C3
:100AC00044EF06F08E0E006E5C50005E5DC002F0DA
:100AD0005EC001F0028E005209E0D890025202E19D
:100AE000015204E002320132002EF7D75DAE05D08C
:100AF000011E021E012AD8B4022A55EF06F045AEA7
:100B000003D047AE0AD002D047BE0CD04550475C58
:100B100009E303E14450465C05E34BC05BF04AC087
:100B20005AF0C7D049AE03D045AE0AD002D045BE78
:100B30000CD04950455C09E303E14850445C05E3AF
:100B40004DC05BF04CC05AF0B4D047AE03D045AEB8
:100B50000CD002D045BEADD04750455CD8A0A9D03E
:100B600004E14450465CD8B0A4D045AE03D049AEB1
:100B70000CD002D049BE9DD04550495CD8A099D038
:100B800004E14850445CD8B094D04A504C5C006EAC
:100B90004B504D58036E00C05CF05D6E11DD03C01C
:100BA00051F002C050F001C04FF000C04EF046506E
:100BB000485C006E47504958036E00C05CF05D6EA3
:100BC000FFDC03C055F002C054F001C053F000C078
:100BD00052F051C05FF050C05EF04FC05DF04EC0AB
:100BE0005CF055C063F054C062F053C061F052C075
:100BF00060F00AD503C051F002C050F001C04FF0C0
:100C000000C04EF04650445C006E47504558036E9D
:100C100000C05CF05D6ED4DC03C059F002C058F037
:100C200001C057F000C056F051C05FF050C05EF0F8
:100C30004FC05DF04EC05CF059C063F058C062F028
:100C400057C061F056C060F08DD503C051F002C0AE
:100C500050F001C04FF000C04EF04BC05DF04AC0F4
:100C60005CF0AEDCD89251C05FF050C05EF04FC077
:100C70005DF04EC05CF003C063F002C062F001C0E2
:100C800061F000C060F0E8D503C051F002C050F040
:100C900001C04FF000C04EF051C05FF050C05EF098
:100CA0004FC05DF04EC05CF00DD702C05BF001C0DC
:100CB0005AF05AC001F05BC002F01200F2CF40F0CF
:100CC000F29EAA6A010EA96EA69CA69EA680A850B6
:100CD00040BEF28E246A236E23C024F0236AF2CF32
:100CE00040F0F29EAA6A020EA96EA69CA69EA6805D
:100CF000A85040BEF28E2326000E24222450000865
:100D000009E2FF0A03E12350F40804E2010E246E15
:100D1000F40E236EF2CF40F0F29EAA6A030EA96E83
:100D2000A69CA69EA680A85040BEF28E256EF2CF4D
:100D300040F0F29EAA6A040EA96EA69CA69EA6800A
:100D4000A85040BEF28E2A6A296E29C02AF0296A6C
:100D5000F2CF40F0F29EAA6A050EA96EA69CA69E4E
:100D6000A680A85040BEF28E2926000E2A222A50C4
:100D7000000809E2FF0A03E12950F40804E2010E29
:100D80002A6EF40E296EF2CF40F0F29EAA6A060E89
:100D9000A96EA69CA69EA680A85040BEF28E2B6E81
:100DA000F2CF40F0F29EAA6A070EA96EA69CA69EFC
:100DB000A680A85040BEF28E276A266E26C027F075
:100DC000266AF2CF40F0F29EAA6A080EA96EA69C8F
:100DD000A69EA680A85040BEF28E2626000E272290
:100DE0002750000809E2FF0A03E12650F40804E254
:100DF000010E276EF40E266EF2CF40F0F29EAA6A24
:100E0000090EA96EA69CA69EA680A85040BEF28E92
:100E1000286EF2CF40F0F29EAA6A0A0EA96EA69C36
:100E2000A69EA680A85040BEF28E2D6A2C6E2CC0C5
:100E30002DF02C6AF2CF40F0F29EAA6A0B0EA96E3A
:100E4000A69CA69EA680A85040BEF28E2C26000E20
:100E50002D222D50000809E2FF0A03E12C50F4086E
:100E600004E2010E2D6EF40E2C6EF2CF40F0F29ED5
:100E7000AA6A0C0EA96EA69CA69EA680A85040BE8B
:100E8000F28E2E6EF2CF40F0F29EAA6A0D0EA96E7F
:100E9000A69CA69EA680A85040BEF28E306E305012
:100EA000640802E2320E306E456A30C044F0476A90
:100EB000466A496A640E486E4B6A4A6A4D6A270E52
:100EC0004C6E1DDE01C02FF0F2CF40F0F29EAA6AF8
:100ED0000E0EA96EA69CA69EA680A85040BEF28EBD
:100EE000326E3250640802E2320E326E456A32C00F
:100EF00044F0476A466A496A640E486E4B6A4A6A19
:100F00004D6A270E4C6EFBDD01C031F0F2CF40F090
:100F1000F29EAA6A0F0EA96EA69CA69EA680A85055
:100F200040BEF28E336E3350780802E2780E336E94
:100F30005BEF11F04F2C01D003D0400E506E01D06A
:100F4000506A010E4E5C502650508009516E526A14
:100F5000536E8BEC02F012004D50070A07E00B0AAB
:100F60000AE0060A12E0020A16E01BD0010E4E6EDD
:100F70004F6EE0DF1CD0526A010E536E8BEC02F014
:100F8000020E4E6E01EC02F012D0010E4E6E020EF9
:100F90004F6ED0DF0CD0526A100E536E8BEC02F005
:100FA00006D0010E526E4DC053F08BEC02F01200D1
:100FB0000900F6CF45F0F7CF46F0F5CF4DF0CCDF86
:100FC00045C0F6FF46C0F7FF442EF2D71200D8B254
:100FD00003D0EA6A550EE96E006A016A026A036A82
:100FE000556A566A576A586A545053105210511035
:100FF0002CE0200E596ED8904D364E364F36503676
:1010000055365636573658365450585C08E15350CA
:10101000575C05E15250565C02E15150555C0FE3BC
:101020005150555E5250D8A0523C565E5350D8A0F5
:10103000533C575E5450D8A0543C585ED88000367C
:10104000013602360336592ED6D755C0EFFF56C0AB
:10105000ECFF57C0ECFF58C0ECFF1200E950446EA3
:101060003B0E4B6E9A0E4A6ECA0E496E486A0A0EC5
:10107000466ED882EA6A400EE96E43C050F042C024
:101080004FF041C04EF040C04DF04BC054F04AC04C
:1010900053F049C052F048C051F099DF015000525E
:1010A0000FE14650010A0CE044500BE00F0B465C88
:1010B00001E00CE244BE0AD044BC03D0200E02D0B2
:1010C000446A300E002600C04DF046DFD8924BC077
:1010D00050F04AC04FF049C04EF048C04DF0546A3D
:1010E000536A526A0A0E516E72DF03C04BF002C09F
:1010F0004AF001C049F000C048F0462EBAD775EF5B
:1011000011F00900F5520CE0F6CF44F0F7CF45F0AE
:10111000F5CF4DF021DF44C0F6FF45C0F7FFF1D712
:10112000120044504602F3CF01F0F4CF00F0470222
:10113000F350002645504602F3500020026E120084
:10114000EACF4CF0E9CF4BF04538F009476E47261F
:10115000E20F486E320F4A6E45500F0B4826482664
:101160004A26E90F496E4926492644380F0B49267D
:101170004A2649364A364A1E4A3644500F0B4A26FA
:101180004736070E466E0A0E49064A26FDE3480614
:101190004926FDE347064826FDE346064726FDE3CC
:1011A000EA6A460EE96E070E4B144B9CE9264A0E7E
:1011B000E95CD8B44B8CEF50006E08E14BBC06D014
:1011C0004BB813D04BB602D0200E03D04B864B98B1
:1011D000300E0026EACF45F0E9CF44F000C04DF0D4
:1011E000BBDE45C0EAFF44C0E9FFEE504BACDFD7A1
:1011F00012004750016A465C03E246C000F00CD082
:10120000006A080E486E463600364750005CD8B07B
:10121000006E0136482EF7D71200015044C046F048
:10122000640E476EE6DF00C044F00150300E07E167
:1012300045A20CD045B60AD045B8200E03D045963D
:1012400045984580012601C04DF086DE44C046F039
:101250000A0E476ECEDF00C044F00150300E06E1AA
:1012600045B608D045A006D045B8200E012601C0DD
:101270004DF072DE300E442644C04DF06DDE12009B
:101280004090416A436A426A4092F20EF66E000E46
:10129000F76E37DF938281A2FDD7040E016EC25034
:1012A000830B0110C26EFA0E4E6E01EC02F0FC0EC2
:1012B000F66E000EF76E25DFC282C2B2FED7C3CF34
:1012C00042F0C4CF43F04092346A34500208D8B49C
:1012D00072D0C282C2B2FED7C3CF3AF0C4CF3BF0C5
:1012E0000A0E4224016E000E4320036E03503B5C45
:1012F00004E311E13A50015C0EE30A0E3A24446E15
:10130000000E3B20456E435C04E305E14250445C23
:1013100002E340A221D03BC045F03AC044F0476A06
:10132000466A030E496E48684B6A4A6A4D6A320E35
:101330004C6E7FEC05F002C024F001C023F024C005
:1013400045F023C044F0476A0A0E466EEADE02C04A
:1013500024F001C023F04082010E4E6E020E4F6E4B
:10136000E9DD200E4D6EF8DD020EE96E24C045F079
:1013700023C044F0E5DE0B0EF66E010EF76E040E90
:10138000446E16DE342C16D0100EF66E010EF76E7B
:10139000B8DE040E446EFA0E4E6E01EC02F0442EDE
:1013A000FAD7346A1A0EF66E010EF76EAADE408086
:1013B000A0EF10F08AD7938281A2FDD7FA0E4E6E6D
:1013C00001EC02F01C0EF66E010EF76E9ADEC28280
:1013D000C2B2FED7C3CF42F0C4CF43F04092346ACA
:1013E000345002085FE0C282C2B2FED7C3CF3AF0E7
:1013F000C4CF3BF00A0E4224016E000E4320036E60
:1014000003503B5C04E311E13A50015C0EE30A0E29
:101410003A24446E000E3B20456E435C04E305E134
:101420004250445C02E340A213D03BC045F03AC0B6
:1014300044F0476A466A030E496E48684B6A010EDB
:101440004A6E4D6A4C687FEC05F001C025F0408281
:10145000010E4E6E020E4F6E6DDD260EF66E010E03
:10146000F76E050E446EA4DD25C044F0130E456EE4
:10147000D4DE342C16D0300EF66E010EF76E41DE3F
:10148000040E446EFA0E4E6E01EC02F0442EFAD7B2
:10149000346A3A0EF66E010EF76E33DE4080A0EF2E
:1014A00010F09ED7938281A2FDD7FA0E4E6E01EC0A
:1014B00002F03C0EF66E010EF76E23DEC282C2B25F
:1014C000FED7C3CF42F0C4CF43F04092346A3450C9
:1014D0000208D8B472D0C282C2B2FED7C3CF3AF0EB
:1014E000C4CF3BF00A0E4224016E000E4320036E6F
:1014F00003503B5C04E311E13A50015C0EE30A0E39
:101500003A24446E000E3B20456E435C04E305E143
:101510004250445C02E340A221D03BC045F03AC0B7
:1015200044F0476A466A030E496E48684B6A4A6A45
:101530004D6A320E4C6E7FEC05F002C02AF001C0FD
:1015400029F02AC045F029C044F0476A0A0E466EC9
:10155000E8DD02C02AF001C029F04082010E4E6E83
:10156000020E4F6EE7DC200E4D6EF6DC020EE96EC9
:101570002AC045F029C044F0E3DD4B0EF66E010EA3
:10158000F76E040E446E14DD342C16D0500EF66E39
:10159000010EF76EB6DD040E446EFA0E4E6E01ECCF
:1015A00002F0442EFAD7346A5A0EF66E010EF76E28
:1015B000A8DD4080A0EF10F08AD7938281A2FDD7EA
:1015C000FA0E4E6E01EC02F05C0EF66E010EF76E36
:1015D00098DDC282C2B2FED7C3CF42F0C4CF43F07F
:1015E0004092346A3450020862E0C282C2B2FED72E
:1015F000C3CF3AF0C4CF3BF00A0E4224016E000E76
:101600004320036E03503B5C04E311E13A50015C5C
:101610000EE30A0E3A24446E000E3B20456E435CF6
:1016200004E305E14250445C02E340A213D03BC016
:1016300045F03AC044F0476A466A030E496E48686E
:101640004B6A010E4A6E4D6A4C687FEC05F001C092
:101650002BF04082010E4E6E020E4F6E6BDC660E5A
:10166000F66E010EF76E050E446EA2DC2BC044F040
:10167000130E456ED2DD200E4D6E6EDC342C16D06E
:10168000700EF66E010EF76E3CDD040E446EFA0E1F
:101690004E6E01EC02F0442EFAD7346A7A0EF66EE2
:1016A000010EF76E2EDD4080A0EF10F09BD79382E5
:1016B00081A2FDD7FA0E4E6E01EC02F07C0EF66EA2
:1016C000010EF76E1EDDC282C2B2FED7C3CF42F05A
:1016D000C4CF43F04092346A34500208D8B474D076
:1016E000C282C2B2FED7C3CF3AF0C4CF3BF00A0EDB
:1016F0004224016E000E4320036E03503B5C04E362
:1017000011E13A50015C0EE30A0E3A24446E000ED9
:101710003B20456E435C04E305E14250445C02E338
:1017200040A221D03BC045F03AC044F0476A466A27
:10173000030E496E48684B6A4A6A4D6A320E4C6E17
:101740007FEC05F002C027F001C026F027C045F06D
:1017500026C044F0476A0A0E466EE3DC02C027F05A
:1017600001C026F04082010E4E6E020E4F6E9AECC2
:1017700007F0200E4D6EACEC07F0020EE96E27C0AC
:1017800045F026C044F0DCDC8B0EF66E010EF76EE1
:10179000040E446E0DDC342C16D0900EF66E010E45
:1017A000F76EAFDC040E446EFA0E4E6E01EC02F0E2
:1017B000442EFAD7346A9A0EF66E010EF76EA1DC4B
:1017C0004080A0EF10F088D7938281A2FDD7FA0E57
:1017D0004E6E01EC02F09C0EF66E010EF76E91DC7F
:1017E000C282C2B2FED7C3CF42F0C4CF43F0409210
:1017F000346A3450020865E0C282C2B2FED7C3CF59
:101800003AF0C4CF3BF00A0E4224016E000E432092
:10181000036E03503B5C04E311E13A50015C0EE3BC
:101820000A0E3A24446E000E3B20456E435C04E3EE
:1018300005E14250445C02E340A213D03BC045F0B6
:101840003AC044F0476A466A030E496E48684B6ADC
:10185000010E4A6E4D6A4C687FEC05F001C028F01D
:101860004082010E4E6E020E4F6E9AEC07F0A60EED
:10187000F66E010EF76E050E446ED8EC07F028C028
:1018800044F0130E456EC9DC200E4D6EACEC07F033
:10189000342C16D0B00EF66E010EF76E32DC040E4C
:1018A000446EFA0E4E6E01EC02F0442EFAD7346A02
:1018B000BA0EF66E010EF76E24DC4080A0EF10F039
:1018C00098D7938281A2FDD7FA0E4E6E01EC02F0FA
:1018D000BC0EF66E010EF76E14DCC282C2B2FED7E9
:1018E000C3CF42F0C4CF43F04092346A3450020870
:1018F000D8B479D0C282C2B2FED7C3CF3AF0C4CF37
:101900003BF00A0E4224016E000E4320036E03508A
:101910003B5C04E311E13A50015C0EE30A0E3A2409
:10192000446E000E3B20456E435C04E305E14250EB
:10193000445C02E340A222D03BC045F03AC044F0F0
:10194000476A466A030E496E48684B6A4A6A4D6A9E
:10195000320E4C6E7FEC05F002C02DF001C02CF071
:101960002DC045F02CC044F0476A0A0E466E91EC3B
:1019700008F002C02DF001C02CF04082010E4E6E26
:10198000020E4F6E9AEC07F0200E4D6EACEC07F095
:10199000020EE96E2DC045F02CC044F0A0EC08F01A
:1019A000CB0EF66E010EF76E040E446ED8EC07F007
:1019B000342C18D0D00EF66E010EF76E81EC08F0C4
:1019C000040E446EFA0E4E6E01EC02F0442EFAD76D
:1019D000346ADA0EF66E010EF76E81EC08F0408084
:1019E000A0EF10F083D7938281A2FDD7FA0E4E6E3E
:1019F00001EC02F0DC0EF66E010EF76E81EC08F0E1
:101A0000C282C2B2FED7C3CF42F0C4CF43F04092ED
:101A1000346A3450020867E0C282C2B2FED7C3CF34
:101A20003AF0C4CF3BF00A0E4224016E000E432070
:101A3000036E03503B5C04E311E13A50015C0EE39A
:101A40000A0E3A24446E000E3B20456E435C04E3CC
:101A500005E14250445C02E340A213D03BC045F094
:101A60003AC044F0476A466A030E496E48684B6ABA
:101A7000010E4A6E4D6A4C687FEC05F001C02EF0F5
:101A80004082010E4E6E020E4F6E9AEC07F0E60E8B
:101A9000F66E010EF76E050E446ED8EC07F02EC000
:101AA00044F0130E456E0DEC09F0200E4D6EACECBB
:101AB00007F0342C17D0F00EF66E010EF76E81ECA5
:101AC00008F0040E446EFA0E4E6E01EC02F0442E45
:101AD000FAD7346AFA0EF66E010EF76E81EC08F052
:101AE00040802ED396D7938281A2FDD7FA0E4E6EF8
:101AF00001EC02F0FC0EF66E010EF76E070E446E5E
:101B0000D8EC07F0250E4D6EACEC07F0490E4D6E8B
:101B1000ACEC07F0C282C2B2FED7C3CF42F0C4CF52
:101B200043F04092346A34500208D8B480D0C28264
:101B3000C2B2FED7C3CF3AF0C4CF3BF00A0E422464
:101B4000016E000E4320036E03503B5C04E311E181
:101B50003A50015C0EE30A0E3A24446E000E3B201C
:101B6000456E435C04E305E14250445C02E340A25D
:101B700024D03BC045F03AC044F0476A466A030EA1
:101B8000496E48684B6A4A6A4D6A640E4C6E7FEC37
:101B900005F001C030F0456A30C044F0476A466A3B
:101BA000496A640E486E4B6A4A6A4D6A270E4C6E4B
:101BB0007FEC05F001C02FF04082010E4E6E020E48
:101BC0004F6E9AEC07F0200E4D6EACEC07F0200E35
:101BD0004D6EACEC07F030C044F0130E456E0DECCA
:101BE00009F0250E4D6EACEC07F0200E4D6EACECFE
:101BF00007F0200E4D6EACEC07F0342C17D0080E19
:101C0000F66E020EF76E81EC08F0040E446EFA0ECA
:101C10004E6E01EC02F0442EFAD7346A120EF66EC4
:101C2000020EF76E81EC08F040808AD27CD7938256
:101C300081A2FDD7FA0E4E6E01EC02F0140EF66E84
:101C4000020EF76E070E446ED8EC07F0250E4D6EAF
:101C5000ACEC07F0490E4D6EACEC07F0C282C2B29C
:101C6000FED7C3CF42F0C4CF43F04092346A345021
:101C70000208D8B480D0C282C2B2FED7C3CF3AF035
:101C8000C4CF3BF00A0E4224016E000E4320036EC7
:101C900003503B5C04E311E13A50015C0EE30A0E91
:101CA0003A24446E000E3B20456E435C04E305E19C
:101CB0004250445C02E340A224D03BC045F03AC00D
:101CC00044F0476A466A030E496E48684B6A4A6A9E
:101CD0004D6A640E4C6E7FEC05F001C032F0456A2F
:101CE00032C044F0476A466A496A640E486E4B6ADD
:101CF0004A6A4D6A270E4C6E7FEC05F001C031F048
:101D00004082010E4E6E020E4F6E9AEC07F0200ECE
:101D10004D6EACEC07F0200E4D6EACEC07F032C00F
:101D200044F0130E456E0DEC09F0250E4D6EACEC33
:101D300007F0200E4D6EACEC07F0200E4D6EACECB3
:101D400007F0342C17D0200EF66E020EF76E81ECE1
:101D500008F0040E446EFA0E4E6E01EC02F0442EB2
:101D6000FAD7346A2A0EF66E020EF76E81EC08F08E
:101D70004080E6D17CD7938281A2FDD7FA0E4E6EC9
:101D800001EC02F02C0EF66E020EF76E81EC08F0FC
:101D9000C282C2B2FED7C3CF42F0C4CF43F040925A
:101DA000346A3450020868E0C282C2B2FED7C3CFA0
:101DB0003AF0C4CF3BF00A0E4224016E000E4320DD
:101DC000036E03503B5C04E311E13A50015C0EE307
:101DD0000A0E3A24446E000E3B20456E435C04E339
:101DE00005E14250445C02E340A214D03BC045F000
:101DF0003AC044F0476A466A030E496E48684B6A27
:101E0000010E4A6E4D6A780E4C6E7FEC05F001C0F3
:101E100033F04082010E4E6E020E4F6E9AEC07F0C8
:101E2000200E4D6EACEC07F033C044F0130E456E3F
:101E30000DEC09F03A0EF66E020EF76E040E446ECB
:101E4000D8EC07F0342C17D0400EF66E020EF76E69
:101E500081EC08F0040E446EFA0E4E6E01EC02F0B6
:101E6000442EFAD7346A4A0EF66E020EF76E81ECF3
:101E700008F0408065D195D740B05CD124C044F0D3
:101E8000F250006EF29EAA6A010EA96E44C0A8FF2D
:101E9000A69CA69EA6840F01550EA76EAA0EA76E3D
:101EA000A682A6B2FED7A6940050F21223C044F038
:101EB000F2CF00F0F29EAA6A020EA96E23C0A8FF1C
:101EC000A69CA69EA684550EA76EAA0EA76EA682F5
:101ED000A6B2FED7A6940050F212F2CF00F0F29E06
:101EE000AA6A030EA96E25C0A8FFA69CA69EA6847A
:101EF000550EA76EAA0EA76EA682A6B2FED7A6940E
:101F00000050F2122AC044F0F2CF00F0F29EAA6A0A
:101F1000040EA96E2AC0A8FFA69CA69EA684550EF4
:101F2000A76EAA0EA76EA682A6B2FED7A6940050F0
:101F3000F21229C044F0F2CF00F0F29EAA6A050E18
:101F4000A96E29C0A8FFA69CA69EA684550EA76EC2
:101F5000AA0EA76EA682A6B2FED7A6940050F212D1
:101F6000F2CF00F0F29EAA6A060EA96E2BC0A8FF5F
:101F7000A69CA69EA684550EA76EAA0EA76EA68244
:101F8000A6B2FED7A6940050F21227C044F0F2CFBA
:101F900000F0F29EAA6A070EA96E27C0A8FFA69CB1
:101FA000A69EA684550EA76EAA0EA76EA682A6B2FE
:101FB000FED7A6940050F21226C044F0F2CF00F0F3
:101FC000F29EAA6A080EA96E26C0A8FFA69CA69E2D
:101FD000A684550EA76EAA0EA76EA682A6B2FED73D
:101FE000A6940050F212F2CF00F0F29EAA6A090EF7
:101FF000A96E28C0A8FFA69CA69EA684550EA76E13
:10200000AA0EA76EA682A6B2FED7A6940050F21220
:102010002DC044F0F2CF00F0F29EAA6A0A0EA96E1B
:102020002DC0A8FFA69CA69EA684550EA76EAA0E3C
:10203000A76EA682A6B2FED7A6940050F2122CC0BC
:1020400044F0F2CF00F0F29EAA6A0B0EA96E2CC0EB
:10205000A8FFA69CA69EA684550EA76EAA0EA76EE4
:10206000A682A6B2FED7A6940050F212F2CF00F0DC
:10207000F29EAA6A0C0EA96E2EC0A8FFA69CA69E70
:10208000A684550EA76EAA0EA76EA682A6B2FED78C
:10209000A6940050F212F2CF00F0F29EAA6A0D0E42
:1020A000A96E30C0A8FFA69CA69EA684550EA76E5A
:1020B000AA0EA76EA682A6B2FED7A6940050F21270
:1020C000F2CF00F0F29EAA6A0E0EA96E32C0A8FFEF
:1020D000A69CA69EA684550EA76EAA0EA76EA682E3
:1020E000A6B2FED7A6940050F212F2CF00F0F29EF4
:1020F000AA6A0F0EA96E33C0A8FFA69CA69EA6844E
:10210000550EA76EAA0EA76EA682A6B2FED7A694FB
:102110000050F2124C0EF66E020EF76E000181ECCA
:1021200008F0346A040E446EFA0E4E6E01EC02F0B2
:10213000442EFAD7560EF66E020EF76E81EC08F0BA
:102140009EEF11F0E950456E3B0E4C6E9A0E4B6EB1
:10215000CA0E4A6E496A0A0E476E4450D8A4450614
:10216000D882EA6A400EE96E43C050F042C04FF098
:1021700041C04EF040C04DF04CC054F04BC053F045
:102180004AC052F049C051F0E7EC07F0015000524C
:102190000FE14428475C0CE045500BE00F0B475C17
:1021A00001E01BE245BE19D045BC03D0200E10D083
:1021B000456A4450475C0BE100C045F02E0E4D6E61
:1021C000ACEC07F045C000F0200E4516000E300EB6
:1021D000002600C04DF0ACEC07F0D8924CC050F097
:1021E0004BC04FF04AC04EF049C04DF0546A536A9C
:1021F000526A0A0E516EE7EC07F003C04CF002C0C1
:102200004BF001C04AF000C049F0472EA9D7120098
:10221000010E415E0BE3EA6A410EE96EEF5006E003
:10222000040E006E002EFED7EF2EFAD71200F86AC9
:10223000D09E078EEA6AE96A700ED36E9B8C9B9ED5
:10224000010E226E330E216E2A0E206E620E1F6E5C
:10225000246A236A256A276A266A286A2A6A296AFA
:102260002B6A2D6A2C6A2E6A2F6A306A316A326AAA
:10227000336A346A356A366A376A396A386A3B6A59
:102280003A6A3C903C923C943D6AC150F00BC16E5E
:10229000000E0F01386F396F3A6F776A786A796A82
:1022A000196A1A6A3E6A3F6A000195EF01F0AEEFC3
:1022B00002F05EEF06F0C00EF2129D8CF28AF288F8
:1022C000F086BC0EF66E020EF76E0A0E446ED8EC67
:1022D00007F0410EE96E22C043F021C042F020C059
:1022E00041F01FC040F02EEF08F0040E406EFA0ED1
:1022F0004E6E01EC02F0402EFAD70C0E4D6EACEC97
:1023000007F0346A3C92376A3452D8B499D13450C9
:10231000020A01E095D13C92376A3C82938281B2F5
:1023200003D037500408FAE2938281B208D03750C4
:10233000040805E23C92376A40EF09F080D1CA0EEA
:10234000F66E020EF76E81EC08F0938281A2FDD743
:10235000640E4E6E01EC02F0346A3452FEE03450EA
:10236000010A03E0030A17E06AD1DE0EF66E020EE0
:10237000F76E81EC08F0040E406EFA0E4E6E01EC22
:1023800002F0402EFAD7346AE80EF66E020EF76EAF
:1023900081EC08F054D1EA0EF66E020EF76E81EC75
:1023A00008F0020E406EFA0E4E6E01EC02F0402E66
:1023B000FAD7346ABE6A676A939A8A9A93948A941F
:1023C0003C94366A356A000E016EC250830B0110D0
:1023D000C26E3B6A3A6A396A386A3C8439501108DD
:1023E000D8A0D2D004E138509308D8A0CDD0345230
:1023F000D8A4CAD03350365CD8B0C6D035503F5C74
:102400004EE035C03FF03CA014D03C903BC039F0CA
:102410003AC038F039C045F038C044F0476A0F0E72
:10242000466E91EC08F002C039F001C038F03B6A0A
:102430003A6A010E4E6E4F6E9AEC07F0490E4D6EE1
:10244000ACEC07F03D0E4D6EACEC07F0410EE96EC2
:10245000436A426A39C041F038C040F0030E446E0E
:1024600071DE410E4D6EACEC07F0010E4E6E020EA9
:102470004F6E9AEC07F0200E4D6EACEC07F036C0B4
:1024800044F0030E456E0DEC09F03A0E4D6EACECC7
:1024900007F035C044F0010E456E0DEC09F02352F3
:1024A00002E1245220E02FC067FF939A8A8A3E6A95
:1024B00025503E5C0EE224C040F0402A4006D8B4CD
:1024C00003D04168A5DEFAD723C041F0A1DE3E2A41
:1024D000EFD7939A8A9A676AC282070E006E002E1F
:1024E000FED700D00000295202E12A5212E03E6AD3
:1024F0002B503E5C0EE22AC040F0402A4006D8B481
:1025000003D0416885DEFAD729C041F081DE3E2A3A
:10251000EFD7265202E1275220E031C0BEFF93944C
:102520008A843E6A28503E5C0EE227C040F0402A72
:102530004006D8B403D041686BDEFAD726C041F01C
:1025400067DE3E2AEFD793948A94BE6AC282070E52
:10255000006E002EFED700D000002C5202E12D525A
:1025600012E03E6A2E503E5C0EE22DC040F0402A42
:102570004006D8B403D041684BDEFAD72CC041F0F6
:1025800047DE3E2AEFD72AD7939A8A9A93948A9461
:10259000BE6A676A3950100827E2FF0A03E1385023
:1025A000940822E2F40EF66E020EF76E0C0E446EE4
:1025B000D8EC07F0410EE96E436A426A39C041F037
:1025C00038C040F0030E446EBDDD410E4D6EACECE4
:1025D00007F0366A356A140E406EFA0E4E6E01EC44
:1025E00002F0402EFAD71BD034520EE0010E4E6E90
:1025F0004F6E9AEC07F0080EF66E030EF76E81EC44
:1026000008F0366A356A0BD0010E4E6E4F6E9AECAA
:1026100007F0120EF66E030EF76E81EC08F03C9494
:10262000040E406EFA0E4E6E01EC02F0402EFAD708
:10263000346A1C0EF66E030EF76E81EC08F000D0C3
:10264000010E4E6E4F6E9AEC07F01E0EF66E030EE4
:10265000F76E81EC08F0010E4E6E020E4F6E9AEC92
:1026600007F0200E4D6EACEC07F036C044F0030EC0
:10267000456E0DEC09F03A0E4D6EACEC07F035C02E
:1026800044F0010E456E0DEC09F0200E4D6EACECE1
:1026900007F03750010808E23C92376A280EF66EC0
:0C26A000030EF76E81EC08F02FD603004B
:020000040030CA
:0E0000000078063C00BE810000C00FE00F40FB
:00000001FF
;PIC18F26K22
;CRC=4F56  CREATED="02-abr-13 07:41"
