:100000000C9434000C9446000C9446000C9446006A
:100010000C9446000C9446000C9446000C94460048
:100020000C9446000C94B2000C9446000C944600CC
:100030000C9446000C9446000C9446000C94460028
:100040000C9490000C9446000C9446000C944600CE
:100050000C9446000C9446000C9446000C94460008
:100060000C9446000C94460011241FBECFEFD8E03C
:10007000DEBFCDBF21E0A0E0B1E001C01D92AB30FA
:10008000B207E1F70E9448000C94EB030C94F800CF
:10009000CF93DF93CDB7DEB70FB6F894A8958091D4
:1000A0006000886180936000109260000FBEF89439
:1000B0000E940B010E9472020E94BA020E949502E5
:1000C00084E090E088709927892B11F088E201C0C4
:1000D00088E094E09770892B982F88E10FB6F89408
:1000E000A895809360000FBE90936000789485E09F
:1000F0008093030181E080930A0185E080930201EF
:1001000081E08093070184E68093000182E380937D
:10011000040181E0809308010E94DD02A895FCCFD4
:100120001F920F9200905F000F9211242F938F93D4
:100130009F93EF93FF93CF93DF93CDB7DEB786E422
:1001400090E022E8FC0120830000DF91CF91FF9135
:10015000EF919F918F912F910F9000925F000F90E0
:100160001F9018951F920F9200905F000F9211241C
:100170002F938F939F93EF93FF93CF93DF93CDB7FD
:10018000DEB782EB90E026EEFC0120838091060131
:10019000882329F080910601815080930601809187
:1001A0000101882329F08091010181508093010190
:1001B00080910901882329F0809109018150809361
:1001C000090180910501882329F080910501815062
:1001D000809305010000DF91CF91FF91EF919F91F6
:1001E0008F912F910F9000925F000F901F901895A4
:1001F0001F920F9200905F000F921124CF93DF9314
:10020000CDB7DEB70000DF91CF910F9000925F0075
:100210000F901F901895CF93DF93CDB7DEB78AE28A
:1002200090E02AE230E0F90120812E7FFC0120835A
:100230008AE290E02AE230E0F90120812260FC01AC
:10024000208387E290E027E230E0F90120812E7FD1
:10025000FC01208384E290E024E230E0F901208177
:100260002F7DFC01208384E290E024E230E0F9015C
:1002700020812F7EFC01208384E290E024E230E0A4
:10028000F9012081277FFC01208387E290E027E2AB
:1002900030E0F90120812D7FFC01208387E290E08E
:1002A00027E230E0F90120812460FC01208387E20D
:1002B00090E027E230E0F90120812062FC012083F8
:1002C00087E290E027E230E0F90120812860FC011C
:1002D000208387E290E027E230E0F90120812F7E41
:1002E000FC01208384E290E024E230E0F9012081E7
:1002F0002260FC01208384E290E024E230E0F901F6
:1003000020812460FC0120838AE290E02AE230E030
:10031000F90120812460FC0120838AE290E02AE236
:1003200030E0F90120812860FC0120838AE290E01E
:100330002AE230E0F90120812061FC0120838AE279
:1003400090E02AE230E0F90120812062FC01208364
:100350008AE290E02AE230E0F90120812064FC0189
:1003600020838AE290E02AE230E0F90120812068CF
:10037000FC01208384E290E024E230E0F901208156
:100380002160FC01208388E290E028E230E0F9015E
:1003900020812160FC01208385E290E025E230E0AD
:1003A000F90120812062FC01208385E290E025E2B2
:1003B00030E0F90120812061FC01208385E290E09A
:1003C00025E230E0F90120812860FC01208388E2E9
:1003D00090E028E230E0F90120812D7FFC012083AC
:1003E00088E290E028E230E0F90120812B7FFC01D7
:1003F000208388E290E028E230E0F90120812F7E1E
:10040000FC01208388E290E028E230E0F9012081BD
:100410002B7FFC01208388E290E028E230E0F901A4
:1004200020812F7DFC01208388E290E028E230E0EB
:10043000F9012081277FFC01208385E290E025E2FD
:1004400030E0F90120812D7FFC01208385E290E0DE
:1004500025E230E0F90120812B7FFC0120838BE233
:1004600090E02BE230E0F90120812B7FFC0120831A
:100470008BE290E02BE230E0F9012081277FFC0144
:1004800020838BE290E02BE230E0F90120812F7E87
:10049000FC0120838BE290E02BE230E0F901208127
:1004A0002F7DFC0120838BE290E02BE230E0F9010C
:1004B00020812F7BFC0120838BE290E02BE230E057
:1004C000F90120812F77FC01208385E290E025E26D
:1004D00030E0F90120812E7FFC0120830000DF91B4
:1004E000CF910895CF93DF93CDB7DEB784E490E04A
:1004F000FC01108285E490E023E0FC0120838EE67D
:1005000090E02EE630E0F90120812160FC0120839B
:1005100085E390E025E330E0F90120812E7FFC01A6
:1005200020830000DF91CF910895CF93DF93CDB763
:10053000DEB781E890E029E0FC01208382E890E0CA
:10054000FC0110828FE690E0FC01108289E890E0C7
:10055000FC01108288E890E0FC0110828BE890E0BA
:10056000FC0110828AE890E0FC0110820000DF911B
:10057000CF910895CF93DF93CDB7DEB780EB90E0B6
:10058000FC01108281EB90E022E0FC01208380E7F7
:1005900090E020E730E0F90120812160FC01208318
:1005A00087E390E027E330E0F90120812E7FFC0112
:1005B00020830000DF91CF910895CF93DF93CDB7D3
:1005C000DEB780910801882F90E08230910509F410
:1005D00045C0833091052CF4009779F0019729F1FB
:1005E000F6C08430910509F493C0843091050CF471
:1005F00063C0059709F4B9C0EAC080E890E021E043
:10060000FC01208388E290E028E230E0F9012081BB
:100610002F7DFC01208388E290E028E230E0F901A0
:100620002081277FFC012083D2C088E890E02091C0
:100630000001FC0120838AE890E020910401FC0184
:10064000208380E890E021E8FC01208382E0809311
:1006500008018091030180930601B9C088E890E009
:1006600020910001FC0120838AE890E0FC011082C7
:1006700088E290E028E230E0F90120812F7DFC0142
:10068000208388E290E028E230E0F90120812860B0
:10069000FC01208380910601882309F091C083E04A
:1006A0008093080180910A018093010180E890E025
:1006B00021E0FC01208384C088E890E0FC011082E6
:1006C0008AE890E0FC01108288E290E028E230E0C5
:1006D000F90120812F7DFC01208388E290E028E24F
:1006E00030E0F9012081277FFC0120838091010106
:1006F000882309F067C084E080930801809102019B
:100700008093090180E890E021E2FC0120835AC037
:1007100088E890E0FC0110828AE890E020910401D2
:10072000FC01208388E290E028E230E0F90120819A
:100730002062FC01208388E290E028E230E0F901A9
:100740002081277FFC012083809109018823E1F526
:1007500085E080930801809107018093050180E87E
:1007600090E021E0FC0120832FC088E890E0FC01AC
:1007700010828AE890E0FC01108288E290E028E292
:1007800030E0F90120812F7DFC01208388E290E098
:1007900028E230E0F9012081277FFC01208380914D
:1007A0000501882399F482E0809308018091030178
:1007B0008093060180E890E021E8FC01208306C0D8
:1007C000000005C0000003C0000001C000000000E0
:0A07D000DF91CF910895F894FFCF58
:00000001FF
