:100000000C9433000C94A7020C9450000C945000F4
:100010000C9450000C9450000C9450000C94500020
:100020000C9450000C9450000C9450000C94500010
:100030000C9450000C9450000C9450000C94500000
:100040000C9450000C9450000C9450000C94DF025F
:100050000C94500020202020202020202020202030
:1000600020202020000011241FBECFE5D4E0DEBFF9
:10007000CDBF10E0A0E6B0E0E8E7FEE002C00590EA
:100080000D92AC3CB107D9F721E0ACECB0E001C077
:100090001D92A831B207E1F70E9454020C943A076E
:1000A0000C94FD02CF93C4988FEF0E94DF03C82FFA
:1000B0008FEF0E94DF03C49A2C2F30E0322F2227CB
:1000C000A901482BCA01CF910895CF93C82F84303E
:1000D00010F087E001C086E0C4980E94DF038C2FF7
:1000E0008295880F880F807C0E94DF03C82F8FEFD6
:1000F0000E94DF03C49ACF702C2F30E0322F2227CA
:10010000A901482BCA01CF9108950C94D00310BCCB
:1001100019B882E08BB988E18AB986E880BD089574
:100120005D9BFECF8CB908955F9BFECF8CB1089587
:100130008FE190E05F9B03C02CB10197D9F7089540
:1001400081E08093F60060EA70E080EE90E00E942B
:10015000490484E090E09093F8008093F70060E019
:1001600080E00E94420280EE90E00E94D00182E096
:100170008093F600089580E00E948F0184E590E06E
:100180009F938F9385EA90E09F938F9380EE90E00A
:100190009F938F930E94500460E080E00E9442028F
:1001A00080EE90E00E94D00161E080E00E94420277
:1001B00080EE90E00E94D001C39A88EE93E0909385
:1001C000DF008093DE001092FA001092F900109286
:1001D000F6000F900F900F900F900F900F900895D2
:1001E000D89AD998D998DA98DA98DB98DB98DF9A78
:1001F000DE9ADD9ADC9AB89AB99ABA9ABB9AC49AEE
:10020000C59AC698C698C79AA098A198A298A3988C
:10021000A498A598A698A798A898A998AA98AB98E2
:10022000AC98AD98AE98AF9888989098899A8B9A28
:100230008E9A8D9A8B9A8C9A8F9A8A989298089512
:1002400082E085BF80E48BBF089583E083BF8CE7A5
:100250008CBF88B78D7F88BF88B78E7F88BF89B7EE
:100260008E7F89BF89B7826089BF08958AB38F70F6
:100270008ABBC19AC09800C000C0C29A00C000C02A
:1002800089B3807F00C000C0C29892E09A95F1F7D0
:1002900000C0C29A00C000C099B300C000C0C2989C
:1002A00092E09A95F1F700C087FDE7CFC1988AB335
:1002B000806F8ABB0895382F32953F70982F9F70BA
:1002C000611102C0C09801C0C09A00C000C0C29AAB
:1002D0002BB3822F8F7040E1349F90011124282B83
:1002E0002BBB82E08A95F1F700C0C29832E03A95C4
:1002F000F1F700C0C29A8BB3282F2F7040E1949F72
:10030000C0011124822B8BBB82E08A95F1F700C0DB
:10031000C29832E03A95F1F700C00C943601CF93C1
:10032000DF93C82F8FE59AEE0197F1F700C0000028
:100330008AB3806F8ABBBA9AB89AB99A8BB38F7016
:100340008BBBC298C198C09800C00000C29ADD9AC9
:1003500092E09A95F1F700C0C29882E08A95F1F791
:1003600000C00E94360160E08C2F8C600E945B010F
:1003700060E088E20E945B0160E080E40E945B0133
:10038000C0E6D0E061E089910E945B0190E0C03A54
:10039000D907C1F760E080E8DF91CF910C945B0151
:1003A0000F931F93CF93DF93EC0188818823C9F0CB
:1003B000853281F48E010F5F1F4F8981805361E088
:1003C000883028F085E20E945B0161E089810E940B
:1003D0005B0104C061E00E945B018E01E80121968F
:1003E000E4CFDF91CF911F910F910895EF92FF928B
:1003F0000F931F93CF93DF9300D000D01F92CDB700
:10040000DEB79B01AE014F5F5F4F7A0145E0F70118
:1004100011924A95E9F7FE0136960AE010E000973E
:1004200031F0B8010E94E4038293CB01F8CF2F3F53
:10043000FFEF3F0741F4F7018F010E191F0981916A
:100440008823D1F304C005E010E0021B130B0E0D4E
:100450001F1DC8018E199F09059744F4F801819169
:100460008F0161E0805D0E945B01F3CF0F900F90E0
:100470000F900F900F90DF91CF911F910F91FF90F0
:10048000EF900895843178F4623031F0633031F0C8
:10049000613029F4806403C08C5E01C08C5A60E036
:1004A00080680C945B010895F89418BE0E94F000D7
:1004B0000E9425010E94BB000E94850080E090E020
:1004C0000E9487000E9420010E94A00060E081E05D
:1004D0000E945B0160E080E00E94420288EA90E0B6
:1004E0000E94D0010E9498000E94940060E081E088
:1004F0000E945B0160E080E00E94420289EB90E094
:100500000E94D0017894C0E00E9494008823E1F317
:10051000C1110FC060E081E00E945B0160E080E0FB
:100520000E94420289EB90E00E94D0017894C1E0E1
:10053000EBCFF89460E081E00E945B0160E080E036
:100540000E94420284EC90E00E94D001DCCF1F9216
:100550000F920FB60F9211242F933F934F935F93F7
:100560006F937F938F939F93AF93BF93EF93FF937B
:100570000E94520090930201809301018091010139
:1005800090910201892F0E94900080910101909129
:1005900002010E9490008CE20E949000FF91EF9176
:1005A000BF91AF919F918F917F916F915F914F918B
:1005B0003F912F910F900FBE0F901F9018951F9293
:1005C0000F920FB60F9211248F939F9312BE8091BA
:1005D000DC009091DD00892B49F08091DC00909146
:1005E000DD0001979093DD008093DC009F918F9157
:1005F0000F900FBE0F901F9018951F920F920FB67D
:100600000F9211240F900FBE0F901F90189581111B
:1006100003C087B1807E34C0813029F487B1807EE9
:1006200087B9389A0895823029F487B1807E87B9D6
:10063000399A0895833031F487B1807E87B987B1C4
:1006400083601EC0843029F487B1807E87B93A9ACE
:100650000895853031F487B1807E87B987B1856090
:100660000FC0863031F487B1807E87B987B186604C
:1006700007C0873031F487B1807E87B987B1876042
:1006800087B90895811102C03F9803C0813019F4E1
:100690003F9A3E9A08953F983E98089580E487B91E
:1006A00080E00E94070387ED86B910921401109232
:1006B0001501109216011092170110920A01109262
:1006C0000B0110920C0110920D0110920E0110926C
:1006D0000F01109210011092110110920501109259
:1006E0000401089580910401823021F128F48823C7
:1006F00049F0813069F051C08430A1F108F18530B2
:10070000C9F14BC081E00E940703369A81E02FC0F7
:10071000369945C064B175B180E090E00E940C0448
:100720006093140170931501809316019093170143
:1007300082E01DC082E00E940703369A83E017C062
:1007400036992DC064B175B180E090E00E940C0430
:1007500060930A0170930B0180930C0190930D013B
:1007600084E005C083E00E940703369A85E0809309
:1007700004010895369913C064B175B180E090E02A
:100780000E940C0460930E0170930F01809310017E
:10079000909311011092040108950C944E03089552
:1007A00087B3806B87BBC49ABC9AC49A8DB18065AD
:1007B0008DB908956E9887B38F7587BB08958FB9EB
:1007C000779BFECF8FB1089597FB072E16F4009408
:1007D00007D077FD09D00E94F80307FC05D03EF44E
:1007E000909581959F4F0895709561957F4F0895DD
:1007F000AA1BBB1B51E107C0AA1FBB1FA617B70747
:1008000010F0A61BB70B881F991F5A95A9F7809562
:100810009095BC01CD010895E89409C097FB3EF482
:1008200090958095709561957F4F8F4F9F4F99233D
:10083000A9F0F92F96E9BB279395F69587957795BB
:100840006795B795F111F8CFFAF4BB0F11F460FF7B
:100850001BC06F5F7F4F8F4F9F4F16C0882311F0D3
:1008600096E911C0772321F09EE8872F762F05C0E7
:10087000662371F096E8862F70E060E02AF09A9582
:10088000660F771F881FDAF7880F9695879597F977
:100890000895FB01DC0101900D920020E1F708951D
:1008A000AEE0B0E0E6E5F4E00C9411070D891E8996
:1008B00086E08C831A8309838FEF9FE79E838D8365
:1008C000AE01475E5F4F6F89788DCE0101960E9421
:1008D0007204EF81F885E00FF11F10822E96E4E09C
:1008E0000C942D07ABE0B0E0E8E7F4E00C940307CC
:1008F0006C017B018A01FC0117821682838181FFD2
:10090000CCC1CE0101963C01F6019381F70193FD24
:10091000859193FF81917F01882309F4BAC18532C3
:1009200039F493FD859193FF81917F01853229F4FC
:10093000B60190E00E946906E7CF912C212C312C62
:10094000FFE1F315D8F08B3279F038F4803279F08A
:100950008332A1F4232D20611DC08D3261F08033DC
:1009600069F4232D216016C0832D8260382EE32D7B
:10097000E4603E2E2AC0F32DF8601DC037FC2DC068
:1009800020ED280F2A3040F08E32B9F436FC81C1B8
:10099000232D2064322E19C036FE06C08AE0989EB0
:1009A000200D1124922E11C0EAE02E9E200D11245C
:1009B000222EF32DF0623F2E08C08C3621F4832DB9
:1009C0008068382E02C0883641F4F70193FD859186
:1009D00093FF81917F018111B3CF982F9F7D955413
:1009E000933028F40C5F1F4F9FE399830DC083362B
:1009F00031F0833771F0833509F059C021C0F80117
:100A0000808189830E5F1F4F88248394912C53012A
:100A100013C02801F2E04F0E511CF801A080B180F4
:100A200036FE03C0692D70E002C06FEF7FEFC50195
:100A30000E945E064C018201F32DFF773F2E16C007
:100A4000280122E0420E511CF801A080B18036FE40
:100A500003C0692D70E002C06FEF7FEFC5010E94F7
:100A600053064C01F32DF0683F2E820133FC1BC06E
:100A7000822D90E088169906B0F4B60180E290E0ED
:100A80000E9469062A94F4CFF50137FC859137FE60
:100A900081915F01B60190E00E94690621102A94BD
:100AA00021E0821A91088114910471F7E8C084361C
:100AB00011F0893641F5F80137FE07C06081718178
:100AC000828193810C5F1F4F08C060817181072E66
:100AD000000C880B990B0E5F1F4FF32DFF763F2EF6
:100AE00097FF09C090958095709561957F4F8F4FC6
:100AF0009F4FF0683F2E2AE030E0A3010E94A50638
:100B0000882E861845C0853731F4232D2F7EB22ECE
:100B10002AE030E025C0932D997FB92E8F36C1F0A1
:100B200018F4883579F0B5C0803719F0883721F08E
:100B3000B0C0E92FE061BE2EB4FE0DC0FB2DF46005
:100B4000BF2E09C034FE0AC0292F2660B22E06C06F
:100B500028E030E005C020E130E002C020E132E0D2
:100B6000F801B7FE07C060817181828193810C5FBB
:100B70001F4F06C06081718180E090E00E5F1F4FC3
:100B8000A3010E94A506882E8618FB2DFF773F2E15
:100B900036FE0DC0232D2E7FA22E891458F434FE6C
:100BA0000BC032FC09C0832D8E7EA82E05C0B82C48
:100BB000A32C03C0B82C01C0B92CA4FE0FC0FE01A9
:100BC000E80DF11D8081803321F49A2D997EA92EA4
:100BD00009C0A2FE06C0B394B39404C08A2D8678DF
:100BE00009F0B394A3FC11C0A0FE06C0B21488F4AF
:100BF000280C922C9B180EC0B21460F4B60180E24F
:100C000090E00E946906B394F7CFB21418F42B1841
:100C100002C0982C212CA4FE10C0B60180E390E005
:100C20000E946906A2FE17C0A1FC03C088E790E0FD
:100C300002C088E590E0B6010CC08A2D867859F094
:100C4000A1FE02C08BE201C080E2A7FC8DE2B601EA
:100C500090E00E946906891438F4B60180E390E0C0
:100C60000E9469069A94F7CF8A94F301E80DF11D6A
:100C70008081B60190E00E9469068110F5CF2220A4
:100C800009F442CEB60180E290E00E9469062A94FF
:100C9000F6CFF6018681978102C08FEF9FEF2B96EA
:100CA000E2E10C941F07FC010590615070400110B7
:100CB000D8F7809590958E0F9F1F0895FC01615085
:100CC000704001900110D8F7809590958E0F9F1F6E
:100CD00008950F931F93CF93DF93FB01238121FD91
:100CE00003C08FEF9FEF2CC022FF16C046815781B3
:100CF000248135814217530744F4A081B1819D01BD
:100D00002F5F3F4F318320838C93268137812F5F64
:100D10003F4F3783268314C08B01EC01FB01008415
:100D2000F185E02D0995892BE1F6D80116968D9174
:100D30009C911797019617969C938E931697CE01C8
:100D4000DF91CF911F910F910895FA01AA272830C2
:100D500051F1203181F1E8946F936E7F6E5F7F4F88
:100D60008F4F9F4FAF4FB1E03ED0B4E03CD0670F04
:100D7000781F891F9A1FA11D680F791F8A1F911D57
:100D8000A11D6A0F711D811D911DA11D20D009F4A7
:100D900068943F912AE0269F11243019305D3193E9
:100DA000DEF6CF010895462F4770405D4193B3E0D2
:100DB0000FD0C9F7F6CF462F4F70405D4A3318F079
:100DC000495D31FD4052419302D0A9F7EACFB4E02A
:100DD000A6959795879577956795BA95C9F70097E2
:100DE0006105710508959B01AC010A2E0694579583
:100DF000479537952795BA95C9F7620F731F841FDA
:100E0000951FA01D08952F923F924F925F926F926F
:100E10007F928F929F92AF92BF92CF92DF92EF928A
:100E2000FF920F931F93CF93DF93CDB7DEB7CA1B0B
:100E3000DB0B0FB6F894DEBF0FBECDBF09942A8836
:100E4000398848885F846E847D848C849B84AA84DE
:100E5000B984C884DF80EE80FD800C811B81AA816B
:100E6000B981CE0FD11D0FB6F894DEBF0FBECDBF36
:080E7000ED010895F894FFCF95
:100E780000001111131D10100F10100E01011E009B
:100E8800000000000000000000000000000000005A
:100E9800000000000000000000000000000000004A
:100EA800000000000000000000000000000000003A
:100EB800486F6C61002553004553504552414E44DC
:100EC8004F20494E4943494F0043415054555241E0
:0C0ED8004E444F004652454E41444F002E
:00000001FF
