:1000000012C021C020C01FC01EC01DC01CC01BC00C
:100010001AC054C018C017C016C015C014C013C0F1
:1000200012C011C010C011241FBECFE5D4E0DEBF46
:10003000CDBF11E0A0E6B0E001C01D92A438B10729
:10004000E1F702D055CF2CC1CF93DF93CDB7DEB708
:1000500088E10FB6F89481BD11BC0FBEF89479D336
:100060002AD4CED296DB45D410924C0110926C006B
:1000700010926B0010924F0110924E011092E50009
:100080001092810110927B008CE291E090937A00B3
:100090008093790090D988E190E02CE00FB6F89435
:1000A000A89581BD0FBE21BD789429DB43D5B8DB6F
:1000B00031D408D191DBE3D4A895F7CF1F920F92EA
:1000C00000905F000F9211242F933F934F935F9303
:1000D0006F937F938F939F93AF93BF93EF93FF9310
:1000E000CF93DF93CDB7DEB782E590E022E8FC0145
:1000F000208380916B0090916C00019690936C002E
:1001000080936B0080916B0090916C00883EF3E0CF
:100110009F07E9F410926C0010926B0080914E01E1
:1001200090914F01009749F080914E0190914F01BD
:10013000019790934F0180934E0180917B0088231B
:1001400029F080917B00815080937B004DDC809171
:100150008201882329F0809182018150809382015D
:100160008091790090917A000097E1F08091680089
:10017000882369F481E08093680082E390E022E3C1
:1001800030E0F90120812460FC0120830BC0109233
:10019000680082E390E022E330E0F90120812B7FC8
:1001A000FC0120838091790090917A00009751F0B2
:1001B0008091790090917A00019790937A008093D2
:1001C000790009C082E390E022E330E0F901208168
:1001D0002B7FFC0120838091640090916500A091A9
:1001E0006600B09167000097A105B105A1F080916C
:1001F000640090916500A0916600B091670001973E
:10020000A109B1098093640090936500A0936600F2
:10021000B093670022C08091640090916500A09126
:100220006600B09167000097A105B105B1F4809117
:100230007B00882391F088EC90E090937A00809383
:10024000790088EE93E0A0E0B0E0809364009093A2
:100250006500A0936600B09367008091E3009091E1
:10026000E400009749F08091E3009091E400019749
:100270009093E4008093E300DF91CF91FF91EF91A1
:10028000BF91AF919F918F917F916F915F914F91AE
:100290003F912F910F9000925F000F901F90189543
:1002A0001F920F9200905F000F921124CF93DF9363
:1002B000CDB7DEB7DF91CF910F9000925F000F9026
:1002C0001F901895CF93DF93CDB7DEB78091E100F3
:1002D000882F90E0009721F081309105A1F02AC18C
:1002E0008BE290E0FC018081882324F48091E70078
:1002F000813019F41092E10022C11092E50081E0F2
:100300008093E1001CC18091E500882309F076C04C
:100310008BE290E0FC018081882F90E0807199272A
:100320000097A1F48BE290E0FC018081882F90E09F
:1003300088709927009751F48BE290E0FC0180814E
:10034000882F90E084709927009731F07DD110922A
:10035000E7001092E10051C08091E500882F90E005
:100360002CE230E0F901208183589F4FFC0120836B
:100370008091E500882F90E083589F4FFC01808199
:100380008A3051F08091E500882F90E083589F4F8C
:10039000FC0180818D30D9F48091E500882F90E0B8
:1003A000019683589F4FFC011082B5D18CE290E0FA
:1003B0002AE0FC012083AFD18CE290E02DE0FC012B
:1003C000208381E08093E7001092E10016C0A3D162
:1003D0008CE290E02091E500222F30E023583F4F3F
:1003E000F9012081FC0120838091E5008F5F8093DB
:1003F000E50081E08093E1009CC09BC08BE290E02F
:10040000FC018081882324F081E08093E10091C089
:100410008091E500833608F076C08BE290E0FC0125
:100420008081882F90E0807199270097A1F48BE25A
:1004300090E0FC018081882F90E0887099270097D8
:1004400051F48BE290E0FC018081882F90E0847071
:100450009927009731F0F8D01092E7001092E10050
:1004600051C08091E500882F90E02CE230E0F90146
:10047000208183589F4FFC0120838091E500882FC5
:1004800090E083589F4FFC0180818A3051F0809129
:10049000E500882F90E083589F4FFC0180818D30CC
:1004A000D9F48091E500882F90E0019683589F4F02
:1004B000FC01108230D18CE290E02AE0FC01208324
:1004C0002AD18CE290E02DE0FC01208381E0809332
:1004D000E7001092E10016C01ED18CE290E020915E
:1004E000E500222F30E023583F4FF9012081FC0125
:1004F00020838091E5008F5F8093E50081E0809309
:10050000E10017C016C08091E500833671F4809138
:10051000E500882F90E083589F4FFC01108281E016
:100520008093E7001092E10004C081E08093E10035
:1005300006C005C01092E7001092E1000000DF91B4
:10054000CF910895CF93DF93CDB7DEB78091E600CA
:10055000882F90E0009721F08130910571F048C01C
:1005600080917C00882319F41092E60046C0109216
:10057000E20081E08093E60040C08091E200882F95
:1005800090E088519F4FFC018081882339F1809150
:10059000E200833618F58BE290E0FC018081882F21
:1005A00090E080729927009721F481E08093E60023
:1005B0001EC08CE290E02091E200222F30E0285112
:1005C0003F4FF9012081FC0120838091E2008F5F81
:1005D0008093E20081E08093E60009C08CE290E025
:1005E000FC01108210927C001092E60006C005C04B
:1005F00010927C001092E6000000DF91CF910895E8
:10060000CF93DF93CDB7DEB780E490E0FC0110829A
:1006100089E290E028E0FC0120838BE290E022E078
:10062000FC0120838AE290E028E1FC01208380E441
:1006300090E026E8FC0120831092E70010927C00F5
:1006400003D0DF91CF910895CF93DF9300D01F9215
:10065000CDB7DEB71A82198210C08CE290E0FC019F
:1006600080818B8389819A818436910509F40BC03E
:1006700089819A8101969A8389838BE290E0FC01BB
:100680008081882354F30F900F900F90DF91CF91CA
:100690000895CF93DF9300D000D000D0CDB7DEB760
:1006A0009C838B837E836D831A82198212C033D020
:1006B0008CE290E029813A814B815C81240F351FC7
:1006C000F9012081FC01208389819A8101969A8316
:1006D000898389819A812B813C81820F931FFC0140
:1006E0008081882351F08D819E819C0121503109A8
:1006F00089819A8182179307D4F20DD08CE290E021
:10070000FC01108226960FB6F894DEBF0FBECDBF57
:10071000DF91CF910895CF93DF93CDB7DEB78AE015
:1007200090E09093E4008093E30000008BE290E07F
:10073000FC018081882F90E080729927009731F426
:100740008091E3009091E400009781F7DF91CF91D1
:100750000895CF93DF93CDB7DEB787E390E027E32B
:1007600030E0F90120812260FC01208387E390E0E2
:1007700027E330E0F90120812460FC01208384E339
:1007800090E024E330E0F90120812E7FFC012083FA
:1007900084E390E024E330E0F90120812D7FFC0127
:1007A000208381E390E021E330E0F901208124609F
:1007B000FC01208387E390E027E330E0F90120810A
:1007C0002160FC01208381E390E021E330E0F90126
:1007D00020812E7FFC01208381E390E021E330E043
:1007E000F90120812260FC01208387E390E027E368
:1007F00030E0F90120812F7DFC01208387E390E028
:1008000027E330E0F9012081277FFC01208387E383
:1008100090E027E330E0F90120812F7EFC01208366
:1008200084E390E024E330E0F90120812F7DFC0196
:10083000208384E390E024E330E0F90120812F7EDF
:10084000FC01208384E390E024E330E0F90120817F
:10085000277FFC01208385E390E025E330E0F90168
:1008600020812062FC01208385E390E025E330E0D5
:10087000F90120812061FC01208385E390E025E3DC
:1008800030E0F90120812860FC01208385E390E0BD
:1008900025E330E0F90120812E7FFC01208385E3F0
:1008A00090E025E330E0F90120812D7FFC012083D9
:1008B000DF91CF910895CF93DF93CDB7DEB783E576
:1008C00090E023E0FC01208389E590E029E530E019
:1008D000F90120812160FC01208388E590E028E572
:1008E00030E0F90120812E7FFC012083DF91CF9140
:1008F0000895CF93DF93CDB7DEB78FE490E021E882
:10090000FC0120838EE490E024E0FC012083DF9151
:10091000CF910895CF93DF93CDB7DEB780914C018F
:10092000882F90E08230910541F1833091051CF4CD
:10093000009751F092C08330910509F447C084308C
:10094000910509F472C089C08AE490E0FC0111822B
:10095000108288E390E028E330E0F90120812B7FCA
:10096000FC01208380914D01813031F482E080933D
:100970004C0110924D0180C07FC080914D018230AA
:1009800021F410924C0110924D01809175019091CB
:1009900076019C0140E050E080917D0190917E01C4
:1009A000A0917F01B0918001281739074A075B07A2
:1009B00060F4809177019091780190934F0180933A
:1009C0004E0183E080934C0157C056C080914D0189
:1009D000823021F410924C0110924D0180914D0112
:1009E000833069F480914E0190914F0190935101B1
:1009F0008093500184E080934C0110924D018AE471
:100A000090E02091730130917401FC0131832083C7
:100A100080914E0190914F01009731F410924C015A
:100A20008EE180937B0028C027C08AE490E0FC011F
:100A30001182108280914D01823021F410924C017C
:100A400010924D0180914D01833031F483E0809309
:100A50004C0110924D0110C00FC08AE490E0FC01DF
:100A60001182108288E390E028E330E0F9012081D0
:100A70002B7FFC0120830000DF91CF910895CF935D
:100A8000DF93CDB7DEB780914C01823049F0809181
:100A90004C01833029F080914C01843009F03EC034
:100AA000809175019091760103969C0140E050E0A1
:100AB00080917D0190917E01A0917F01B091800194
:100AC000281739074A075B0748F488E390E028E3D2
:100AD00030E0F90120812B7FFC012083809175019A
:100AE0009091760103979C0140E050E080917D0158
:100AF00090917E01A0917F01B091800182179307B0
:100B0000A407B50750F488E390E028E330E0F9014A
:100B100020812460FC0120830AC009C088E390E0A2
:100B200028E330E0F90120812B7FFC012083DF9155
:100B3000CF910895CF93DF93CDB7DEB78091E700D3
:100B4000813009F058C01092540110925301109254
:100B5000520180917D00853429F080917D00853699
:100B600009F047C080917E00843529F080917E0095
:100B7000843709F03EC080917F00992787FD9095CA
:100B8000C097880F982F990F990F980F8091800028
:100B9000890F80538093540180918100803249F500
:100BA00080918200992787FD9095C09744E6489FE1
:100BB0009001499F300D112480918300992787FD72
:100BC0009095C097880F991FAC01440F551F440F93
:100BD000551F840F951F280F391F80918400992776
:100BE00087FD9095C097820F931F90935301809338
:100BF00052011092E70080915401882F90E08330D9
:100C0000910559F1843091053CF48130910579F0DA
:100C100082309105C1F067C08B309105C1F18C30F5
:100C2000910509F44AC08A309105D9F05CC084E688
:100C300090E090937A008093790082E080934D0158
:100C400010927B0050C084E690E090937A008093ED
:100C5000790081E080934D0146C083E080934D018F
:100C600042C084E690E090937A008093790080916E
:100C7000520190915301909378018093770139D478
:100C8000F3D06AE070E080E790E003DD2CC084E6FA
:100C900090E090937A008093790080915201909136
:100CA0005301909376018093750123D4DDD06AE0DF
:100CB00070E080E790E0EDDC16C084E690E0909371
:100CC0007A00809379008091520190915301909322
:100CD0007401809373010DD4C7D06AE070E080E79F
:100CE00090E0D7DC000010925401DF91CF9108957D
:100CF000CF93DF9300D000D000D0CDB7DEB71092F5
:100D00007201109271019FC005D120916D01309147
:100D10006E0180916F01909170012817390769F574
:100D2000D4D035D12091690130916A0180916B0155
:100D300090916C0128173907F9F01A8219821A82EA
:100D4000198210C089819A819C0120593F4F898165
:100D50009A81855F9F4FB901B3D189819A810196AC
:100D60009A83898389819A81893091055CF36DE644
:100D700071E084E190E05BD26EC009D120916901FD
:100D800030916A0180916B0190916C0128173907AD
:100D900009F59BD01C821B821C821B8210C08B8198
:100DA0009C819C0120593F4F8B819C8180509040B9
:100DB000B90186D18B819C8101969C838B838B8129
:100DC0009C81893091055CF369E671E089E090E0EF
:100DD0002ED241C080917101909172018A309105AB
:100DE00050F480917101909172010196909372017B
:100DF0008093710128C01E821D821E821D821BC02D
:100E00008D819E819C0120593F4F8D819E81805014
:100E10009040B90155D18D819E819C0120593F4F51
:100E20008D819E81855F9F4FB9014AD18D819E81C1
:100E300001969E838D838D819E818930910504F377
:100E400081E0E2D008C080917101909172018B30F5
:100E5000910508F459CF26960FB6F894DEBF0FBE61
:100E6000CDBFDF91CF910895CF93DF9300D0CDB761
:100E7000DEB71A8219821A8219821BC089819A816F
:100E80009C0120593F4F89819A8180509040B9013F
:100E900017D189819A819C0120593F4F89819A817C
:100EA000855F9F4FB9010CD189819A8101969A8300
:100EB000898389819A818930910504F381E0A4D0E6
:100EC0000F900F90DF91CF910895CF93DF9300D0D3
:100ED000CDB7DEB71A8219821A82198211C08981B0
:100EE0009A818B5A9E4FFC01208189819A81805979
:100EF0009F4FFC01208389819A8101969A8389837F
:100F000089819A818930910554F30F900F90DF9178
:100F1000CF910895CF93DF9300D0CDB7DEB71A827B
:100F2000198210926E0110926D011A82198220C0EE
:100F300089819A819C012B5A3E4F89819A818050E8
:100F40009040B90119D189819A818B5A9E4F98D0CE
:100F50009C0180916D0190916E01820F931F90937F
:100F60006E0180936D0189819A8101969A838983AC
:100F700089819A8189309105DCF26FE671E089E020
:100F800090E0B7D10F900F90DF91CF910895CF935C
:100F9000DF9300D0CDB7DEB71A82198210926A01B2
:100FA000109269011A82198220C089819A819C015C
:100FB0002B5A3E4F89819A81855F9F4FB901DCD0C2
:100FC00089819A818B5A9E4F5BD09C0180916901E7
:100FD00090916A01820F931F90936A018093690137
:100FE00089819A8101969A83898389819A8189303E
:100FF0009105DCF26BE671E084E190E07AD10F902C
:101000000F90DF91CF910895CF93DF9300D000D060
:101010001F92CDB7DEB78D831C821B828D818130FC
:1010200039F51A8219821A82198211C089819A812E
:1010300080599F4F25D09C018B819C81820F931FEB
:101040009C838B8389819A8101969A838983898184
:101050009A818930910554F3CE010396BC0189E051
:1010600090E0E5D0CE010396BC0184E190E0DFD0B2
:101070000F900F900F900F900F90DF91CF910895E8
:10108000CF93DF9300D000D000D0CDB7DEB79E83E2
:101090008D838D819E819A83898389819A81FC01C8
:1010A0008081918199279C838B838B819C8126965B
:1010B0000FB6F894DEBF0FBECDBFDF91CF9108957C
:1010C000CF93DF93CDB7DEB727970FB6F894DEBF87
:1010D0000FBECDBF9D838C837F836E831A8219825E
:1010E00036C0A8958CE390E0FC018081882F90E0C9
:1010F000827099270097B1F7F8948E819F81FC0147
:101100008081282F8C819D81622FD2D678948CE3A8
:1011100090E0FC018081882F90E0827099270097F1
:10112000B1F7F8948C819D81B6D68B838E819F8197
:10113000FC0190818B81981729F485E690E09A83D1
:10114000898305C089819A8101969A8389838981DF
:101150009A81843691052CF28EE390E026E130E00E
:10116000FC013183208327960FB6F894DEBF0FBEB3
:10117000CDBFDF91CF910895CF93DF93CDB7DEB789
:1011800027970FB6F894DEBF0FBECDBF9D838C832B
:101190007F836E831A82198235C0A8958CE390E014
:1011A000FC018081882F90E0827099270097B1F729
:1011B000F8948C819D816FD6282F8E819F81FC01B0
:1011C000208378948CE390E0FC018081882F90E06C
:1011D000827099270097B1F7F8948C819D815BD636
:1011E0008B838E819F81FC0190818B81981729F4DC
:1011F00085E690E09A83898305C089819A8101966A
:101200009A83898389819A818436910534F28EE3A9
:1012100090E026E130E0FC013183208327960FB671
:10122000F894DEBF0FBECDBFDF91CF910895CF936D
:10123000DF93CDB7DEB728970FB6F894DEBF0FBEA9
:10124000CDBF9E838D8378876F831A8219823BC0BE
:10125000A8958CE390E0FC018081882F90E082705B
:1012600099270097B1F7F8948F819885FC01208128
:1012700031818D819E81B90128D678948CE390E0EC
:10128000FC018081882F90E0827099270097B1F748
:10129000F8948D819E8107D69C838B8378948F816F
:1012A0009885FC01208131818B819C812817390729
:1012B00029F485E690E09A83898305C089819A8123
:1012C00001969A83898389819A81843691050CF4E9
:1012D000BFCF8EE390E026E130E0FC013183208334
:1012E00028960FB6F894DEBF0FBECDBFDF91CF9129
:1012F0000895CF93DF93CDB7DEB728970FB6F89454
:10130000DEBF0FBECDBF9E838D8378876F831A8229
:1013100019823BC0A8958CE390E0FC018081882F66
:1013200090E0827099270097B1F7F8948D819E81A3
:10133000BAD59C018F819885FC01318320837894F4
:101340008CE390E0FC018081882F90E082709927E7
:101350000097B1F7F8948D819E81A5D59C838B83EE
:1013600078948F819885FC01208131818B819C81CB
:101370002817390729F485E690E09A83898305C008
:1013800089819A8101969A83898389819A81843699
:1013900091050CF4BFCF8EE390E026E130E0FC0134
:1013A0003183208328960FB6F894DEBF0FBECDBFE1
:1013B000DF91CF910895CF93DF93CDB7DEB78FE064
:1013C00090E090937801809377018EE190E0909384
:1013D0007601809375018CE090E090937401809386
:1013E000730187D085DC03D0DF91CF910895CF932F
:1013F000DF93CDB7DEB780917000992787FD909578
:10140000C09744E6489F9001499F300D1124809178
:101410007100992787FD9095C097880F991FAC019F
:10142000440F551F440F551F840F951F280F391F58
:1014300080917200992787FD9095C097820F931F26
:10144000909378018093770180917300992787FDAD
:101450009095C09744E6489F9001499F300D112414
:1014600080917400992787FD9095C097880F991FE8
:10147000AC01440F551F440F551F840F951F280FB3
:10148000391F80917500992787FD9095C097820F2D
:10149000931F909376018093750180917600992730
:1014A00087FD9095C09744E6489F9001499F300D75
:1014B000112480917700992787FD9095C097880F18
:1014C000991FAC01440F551F440F551F840F951FE2
:1014D000280F391F80917800992787FD9095C09734
:1014E000820F931F9093740180937301DF91CF91CA
:1014F0000895CF93DF93CDB7DEB728970FB6F89452
:10150000DEBF0FBECDBF80917701909178019A83A5
:10151000898380917501909176019C838B83809162
:101520007301909174019E838D8389819A81969530
:101530008795969587959C01ABE7B4E161D3969525
:10154000879598878F838F81805D809370002F812E
:10155000388544E6429FC001439F900D11242981A4
:101560003A81A901481B590BCA019A838983898151
:101570009A819C01ADECBCEC43D3969587959695EA
:1015800087959695879598878F838F81805D8093C7
:1015900071008F819885880F991F9C01220F331F3E
:1015A000220F331F820F931F29813A81A901481B03
:1015B000590BCA019A8389838981805D8093720067
:1015C0008B819C8196958795969587959C01ABE735
:1015D000B4E116D39695879598878F838F81805D28
:1015E000809373002F81388544E6429FC001439F5A
:1015F000900D11242B813C81A901481B590BCA0174
:101600009C838B838B819C819C01ADECBCECF8D2DC
:1016100096958795969587959695879598878F83C4
:101620008F81805D809374008F819885880F991FCA
:101630009C01220F331F220F331F820F931F2B8118
:101640003C81A901481B590BCA019C838B838B8168
:10165000805D809375008D819E8196958795969586
:1016600087959C01ABE7B4E1CBD296958795988797
:101670008F838F81805D809376002F81388544E64B
:10168000429FC001439F900D11242D813E81A901ED
:10169000481B590BCA019E838D838D819E819C01BD
:1016A000ADECBCECADD296958795969587959695C1
:1016B000879598878F838F81805D809377008F8156
:1016C0009885880F991F9C01220F331F220F331F0B
:1016D000820F931F2D813E81A901481B590BCA011E
:1016E0009E838D838D81805D8093780028960FB6D0
:1016F000F894DEBF0FBECDBFDF91CF910895CF9399
:10170000DF93CDB7DEB786E290E0FC018081882FC1
:1017100090E0807499270097C9F587E290E0FC017A
:10172000808184E290E0FC0180819181CC01A0E085
:10173000B0E0BC01CD01BED2DC01CB0125E33EE52A
:101740004AEF5EE3BC01CD011BD3DC01CB01BC0140
:10175000CD0184D2DC01CB0180937D0190937E0189
:10176000A0937F01B093800187E290E027E230E010
:10177000F90120812160FC01208386E290E026E2CD
:1017800030E0F90120812064FC012083DF91CF91BA
:101790000895CF93DF93CDB7DEB787E290E020E4E2
:1017A000FC01208386E290E027E1FC01208386E2B1
:1017B00090E026E230E0F90120812068FC012083DE
:1017C00086E290E026E230E0F90120812064FC010D
:1017D0002083DF91CF910895CF93DF93CDB7DEB70C
:1017E00086E390E0FC018081882F90E08470992747
:1017F000009751F488E390E028E330E0F90120817C
:101800002E7FFC01208309C088E390E028E330E0CC
:10181000F90120812160FC012083DF91CF9108959F
:10182000CF93DF93CDB7DEB780918101882F90E011
:1018300081309105A9F1823091051CF4009751F097
:10184000CBC08230910509F47BC08330910509F447
:101850009DC0C2C083E390E0FC018081882F90E0AE
:10186000807299270097A1F083E390E0FC018081CA
:10187000882F90E080719927009751F083E390E0E2
:10188000FC018081882F90E088709927009739F4B7
:1018900081E08093810182E380938201A2C0A1C094
:1018A00080918201882309F04AC083E390E0FC0123
:1018B0008081882F90E080729927009761F481E001
:1018C00080934D0110927B0084E690E090937A0023
:1018D0008093790030C083E390E0FC018081882F01
:1018E00090E080719927009761F482E080934D0128
:1018F00010927B0084E690E090937A0080937900C8
:101900001AC083E390E0FC018081882F90E088700A
:101910009927009761F483E080934D0110927B003A
:1019200084E690E090937A008093790004C010924E
:101930004D011092810182E08093810152C051C01B
:1019400083E390E0FC018081882F90E080729927EA
:101950000097D9F083E390E0FC018081882F90E02C
:1019600080719927009789F083E390E0FC018081E2
:10197000882F90E088709927009739F083E0809352
:10198000810182E3809382012CC02BC0809182016F
:10199000882309F583E390E0FC018081882F90E0A3
:1019A000807299270097B9F083E390E0FC01808171
:1019B000882F90E080719927009769F083E390E089
:1019C000FC018081882F90E088709927009719F09A
:1019D0001092810106C005C01092810110924D0144
:1019E0000000DF91CF910895CF93DF93CDB7DEB79D
:1019F0002C970FB6F894DEBF0FBECDBF8DE080935D
:101A0000E80084E58093E90085E68093EA008DE6AE
:101A10008093EB0080E78093EC0085E68093ED00F7
:101A200082E78093EE0081E68093EF0084E7809365
:101A3000F00085E78093F10082E78093F20081E671
:101A40008093F3008AE38093F40080917D0190916C
:101A50007E01A0917F01B091800124E630E040E05A
:101A600050E0BC01CD01D8D0DA01C901805D80937E
:101A7000F50080917D0190917E01A0917F01B09150
:101A8000800124E630E040E050E0BC01CD01C4D04C
:101A9000DC01CB019A83898389819A819C01ADEC19
:101AA000BCECAED09695879596958795969587953B
:101AB000805D8093F60049815A819A01ADECBCECBF
:101AC0009FD0969587959695879596958795880F3B
:101AD000991F9C01220F331F220F331F820F931F68
:101AE0009A01281B390BC9019C838B838B81805DF4
:101AF0008093F70080E28093F80084E58093F900FA
:101B000089E68093FA0085E68093FB008DE680935A
:101B1000FC0080E78093FD008FE68093FE008AE35F
:101B20008093FF0080914E0190914F01969587958B
:101B3000969587959C01ABE7B4E162D09695879521
:101B4000805D8093000140914E0150914F01CA0188
:101B500096958795969587959C01ABE7B4E150D013
:101B60009C013695279564E6629FC001639F900DA6
:101B700011249A01281B390BC9019A838983898111
:101B80009A819C01ADECBCEC3BD0969587959695DF
:101B9000879596958795805D8093010149815A814B
:101BA0009A01ADECBCEC2CD09695879596958795CF
:101BB00096958795880F991F9C01220F331F220F3E
:101BC000331F820F931F9A01281B390BC9019C8375
:101BD0008B838B81805D809302018AE08093030177
:101BE000109204016DE170E088EE90E052D52C96E1
:101BF0000FB6F894DEBF0FBECDBFDF91CF91089531
:101C0000A29FB001B39FC001A39F01D0B29F700DEE
:101C1000811D1124911D0895A1E21A2EAA1BBB1B40
:101C2000FD010DC0AA1FBB1FEE1FFF1FA217B307A8
:101C3000E407F50720F0A21BB30BE40BF50B661FBE
:101C4000771F881F991F1A9469F760957095809582
:101C500090959B01AC01BD01CF01089570D088F033
:101C60009F5790F0B92F9927B751A0F0D1F0660F88
:101C7000771F881F991F1AF0BA95C9F712C0B130A3
:101C800081F077D0B1E0089574C0672F782F88274E
:101C9000B85F39F0B93FCCF3869577956795B395E2
:101CA000D9F73EF490958095709561957F4F8F4F51
:101CB0009F4F0895E89409C097FB3EF49095809556
:101CC000709561957F4F8F4F9F4F9923A9F0F92F02
:101CD00096E9BB279395F695879577956795B79580
:101CE000F111F8CFFAF4BB0F11F460FF1BC06F5F66
:101CF0007F4F8F4F9F4F16C0882311F096E911C078
:101D0000772321F09EE8872F762F05C0662371F098
:101D100096E8862F70E060E02AF09A95660F771FAC
:101D2000881FDAF7880F9695879597F9089557FDDC
:101D30009058440F551F59F05F3F71F04795880F39
:101D400097FB991F61F09F3F79F0879508951216D0
:101D500013061406551FF2CF4695F1DF08C016167C
:101D600017061806991FF1CF86957105610508942D
:101D70000895E894BB2766277727CB0197F9089544
:101D80000BD078C069D028F06ED018F0952309F0F8
:101D90005AC05FC01124EECFCADFA0F3959FD1F3E4
:101DA000950F50E0551F629FF001729FBB27F00D09
:101DB000B11D639FAA27F00DB11DAA1F649F66275E
:101DC000B00DA11D661F829F2227B00DA11D621FAD
:101DD000739FB00DA11D621F839FA00D611D221F67
:101DE000749F3327A00D611D231F849F600D211D4B
:101DF000822F762F6A2F11249F5750408AF0E1F0EE
:101E000088234AF0EE0FFF1FBB1F661F771F881F36
:101E100091505040A9F79E3F510570F014C0AACFD1
:101E20005F3FECF3983EDCF3869577956795B79521
:101E3000F795E7959F5FC1F7FE2B880F911D96954B
:101E4000879597F9089597F99F6780E870E060E0BB
:101E500008959FEF80EC089500240A941616170643
:101E600018060906089500240A941216130614068B
:101E700005060895092E0394000C11F4882352F0EE
:101E8000BB0F40F4BF2B11F460FF04C06F5F7F4FA6
:101E90008F4F9F4F0895E199FECF9FBB8EBBE09A75
:101EA00099278DB30895A8E1B0E042E050E012C058
:101EB000262FE199FECF9FBB8EBB2DBB0FB6F894AA
:101EC000E29AE19A0FBE01960895F2DF272FF1CF33
:101ED000DC01CB01FC01E199FECF06C0FFBBEEBBEC
:101EE000E09A31960DB20D9241505040B8F70895E6
:041EF000F894FFCF94
:00000001FF
