:100000000C9434000C943E000C943E000C943E0082
:100010000C943E000C943E000C943E000C943E0068
:100020000C943E000C943E000C943E000C943E0058
:100030000C943E000C943E000C943E000C943E0048
:100040000C943E000C943E000C943E000C943E0038
:100050000C943E000C943E000C943E000C943E0028
:100060000C943E000C943E0011241FBECFEFD8E04C
:10007000DEBFCDBF0E9440000C94AE010C94000086
:10008000CF93DF93CDB7DEB70E94B30088E290E054
:1000900028E230E0F90120812B7FFC01208388E2F7
:1000A00090E028E230E0F90120812062FC01208309
:1000B00088E290E028E230E0F90120812860FC012C
:1000C000208385E290E025E230E0F9012081226082
:1000D000FC01208385E290E025E230E0F9012081F7
:1000E0002460FC0120838BE290E02BE230E0F901F8
:1000F00020812460FC0120838BE290E02BE230E041
:10010000F90120812860FC0120838BE290E02BE242
:1001100030E0F90120812061FC0120838BE290E036
:100120002BE230E0F90120812062FC0120838BE288
:1001300090E02BE230E0F90120812064FC01208373
:100140008BE290E02BE230E0F90120812068FC0195
:10015000208385E290E025E230E0F90120812160F2
:10016000FC01208393CFCF93DF93CDB7DEB78AE234
:1001700090E02AE230E0F90120812E7FFC0120830B
:100180008AE290E02AE230E0F90120812260FC015D
:10019000208387E290E027E230E0F90120812E7F82
:1001A000FC01208384E290E024E230E0F901208128
:1001B0002F7DFC01208384E290E024E230E0F9010D
:1001C00020812F7EFC01208384E290E024E230E055
:1001D000F9012081277FFC01208387E290E027E25C
:1001E00030E0F90120812D7FFC01208387E290E03F
:1001F00027E230E0F90120812460FC01208387E2BE
:1002000090E027E230E0F90120812062FC012083A8
:1002100087E290E027E230E0F90120812860FC01CC
:10022000208387E290E027E230E0F90120812F7EF1
:10023000FC01208384E290E024E230E0F901208197
:100240002260FC01208384E290E024E230E0F901A6
:1002500020812460FC0120838AE290E02AE230E0E1
:10026000F90120812460FC0120838AE290E02AE2E7
:1002700030E0F90120812860FC0120838AE290E0CF
:100280002AE230E0F90120812061FC0120838AE22A
:1002900090E02AE230E0F90120812062FC01208315
:1002A0008AE290E02AE230E0F90120812064FC013A
:1002B00020838AE290E02AE230E0F9012081206880
:1002C000FC01208384E290E024E230E0F901208107
:1002D0002160FC01208388E290E028E230E0F9010F
:1002E00020812160FC01208385E290E025E230E05E
:1002F000F90120812062FC01208385E290E025E263
:1003000030E0F90120812061FC01208385E290E04A
:1003100025E230E0F90120812860FC01208388E299
:1003200090E028E230E0F90120812D7FFC0120835C
:1003300088E290E028E230E0F90120812B7FFC0187
:10034000208388E290E028E230E0F90120812F7ECE
:10035000FC0120830000DF91CF910895F894FFCF36
:00000001FF
